:1000000098C10000C7C10000C5C10000C3C1000005
:10001000C1C10000BFC10000BDC10000BBC10000E4
:10002000B9C10000B7C10000B5C10000B3C10000F4
:10003000B1C10000AFC10000ADC10000ABC1000004
:10004000A9C10000A7C10000A5C10000A3C1000014
:10005000A1C100009FC100009DC100000C94B4121A
:1000600099C100000C947E120C94541293C10000AC
:1000700091C100008FC100008DC100008BC1000044
:1000800089C1000087C1000085C1000083C1000054
:1000900081C100007FC100007DC100007BC1000064
:1000A00079C1000077C1000075C1000073C1000074
:1000B00071C100006FC100006DC100006BC1000084
:1000C00069C1000067C1000065C1000063C1000094
:1000D00061C100005FC100005DC100005BC10000A4
:1000E00059C100007374645F6D7367732F54696D39
:1000F00065006364373136366337346335353263D0
:10010000333131666263633266653561376263320B
:10011000383900726F7373657269616C5F6D7367F4
:10012000732F546F706963496E666F003061643578
:100130003166383866633434383932663863313082
:1001400036383430373736343630303500726F73E6
:1001500073657269616C5F6D7367732F4C6F6700B5
:10016000313161626437333163323539333332369A
:100170003163643631383362643132643632393552
:1001800000726F7373657269616C5F6D7367732F53
:1001900052657175657374506172616D00396630B6
:1001A00065393862646136353938313938366464D6
:1001B00066353361666137613430653439006765AF
:1001C0006F6D657472795F6D7367732F56656374B5
:1001D0006F7233003461383432623635663431330D
:1001E0003038346463326231306662343834656189
:1001F000376631370067656F6D657472795F6D734F
:1002000067732F54776973740039663139356638EE
:100210003831323436666466613237393864316475
:100220003365656263613834610000000A0B0209BE
:100230000C0D0E0807030401000000000000000080
:1002400000000000000000000000000000000000AE
:10025000000000000000121110000000000000006B
:10026000000000000000000000000000000000008E
:1002700000002200250028002B002E003100340051
:1002800002010000050108010B010000210024000B
:1002900027002A002D003000330001010000040176
:1002A00007010A01050505050705080808080202F7
:1002B00002020A0A08080404040401010101010100
:1002C00001010303030303030303040707070C0CE3
:1002D0000C0C0C0C0C0C02020202060606060606AA
:1002E00006060B0B0B0B0B0B0B0B0102102020084F
:1002F0000810204010204080020102010804020181
:1003000001020408102040808040201008040201EF
:100310008004020180402010080402010804020148
:1003200001020408102040800102040810204080CF
:10033000FE1211241FBECFEFD1E2DEBFCDBF00E021
:100340000CBF12E0A0E0B2E0E8E6F0E300E00BBF93
:1003500002C007900D92AE3EB107D9F728E0AEEE8D
:10036000B2E001C01D92A137B207E1F711E0C9E97F
:10037000D1E000E006C021970109802FFE010E9414
:10038000F315C839D10780E00807A9F70E94FE13CA
:100390000C94321835CE90E0FC01E651FD4F2491CB
:1003A0008C559D4FFC018491882399F090E0880F33
:1003B000991FFC01E657FD4FA591B491FC01E0594E
:1003C000FD4F859194918FB7F894EC91E22BEC93CB
:1003D0008FBF0895CF93DF9300D01F921F92CDB7A8
:1003E000DEB720E332E03A83298323E02B837D8349
:1003F0006C83DC01ED91FC910190F081E02DAE0168
:100400004F5F5F4F67E070E019950F900F900F906E
:100410000F900F90DF91CF910895AF92BF92CF923E
:10042000DF92EF92FF920F931F93CF93DF936C01B4
:100430007B018B01040F151FEB015E01AE18BF0895
:10044000C017D10759F06991D601ED91FC91019047
:10045000F081E02DC6011995892B79F7C501DF914F
:10046000CF911F910F91FF90EF90DF90CF90BF90B1
:10047000AF900895FC01538D448D252F30E0842FDB
:1004800090E0821B930B541710F0CF9608950197BC
:100490000895FC01918D828D981761F0A28DAE0FA9
:1004A000BF2FB11D5D968C91928D9F5F9F73928F30
:1004B00090E008958FEF9FEF0895FC01918D828D5C
:1004C000981731F0828DE80FF11D858D90E0089529
:1004D0008FEF9FEF0895FC01918D228D892F90E081
:1004E000805C9F4F821B91098F739927089589EF34
:1004F00092E0F1DF21E0892B09F420E0822F0895BA
:10050000FC01A48DA80FB92FB11DA35ABF4F2C9188
:10051000848D90E001968F739927848FA689B7897F
:100520002C93A089B1898C91837080648C93938D76
:10053000848D981306C00288F389E02D80818F7D19
:1005400080830895EF92FF920F931F93CF93DF93D1
:10055000EC0181E0888F9B8D8C8D98131AC0E889FF
:10056000F989808185FF15C09FB7F894EE89FF89CE
:100570006083E889F98980818370806480839FBF6C
:1005800081E090E0DF91CF911F910F91FF90EF906C
:100590000895F62E0B8D10E00F5F1F4F0F7311277C
:1005A000E02E8C8D8E110BC00FB607FCFACFE889B8
:1005B000F989808185FFF5CFCE01A2DFF2CFEB8DE7
:1005C000EC0FFD2FF11DE35AFF4FF0829FB7F89417
:1005D0000B8FEA89FB8980818062D0CFCF93DF9334
:1005E000EC01888D8823B1F0AA89BB89E889F98953
:1005F0008C9185FD03C0808186FD0CC00FB607FC81
:10060000F7CF8C9185FFF2CF808185FFEDCFCE01B2
:1006100077DFEACFDF91CF91089580E090E0892BDA
:1006200021F065DF81110E94000080E090E0892BBD
:1006300049F080E090E0892B29F00E9400008111B0
:100640000E94000080E090E0892B49F080E090E07B
:10065000892B29F00E94000081110E94000080E097
:1006600090E0892B49F080E090E0892B29F00E94EE
:10067000000081110C9400000895282F30E0F9014A
:10068000E65DFD4F9491F901E651FD4F44912C55E3
:100690003D4FF9012491222309F435C0992311F12A
:1006A00091509231F8F4E92FF0E08827E55AFC4F99
:1006B0008F4F0C94F3158C0390036D038403880310
:1006C0007203930399039D03A303A703AB03B10331
:1006D000B5037203B903BF03C303809180008F7712
:1006E00080938000E22FF0E0EE0FFF1FE059FD4FF6
:1006F000A591B4918FB7F894EC91611148C04095E1
:100700004E234C938FBF0895809180008F7DE8CF5A
:1007100080918000877FE4CF84B58F7784BDE2CF5E
:1007200084B58F7DFBCF8091B0008F778093B00030
:10073000D9CF8091B0008F7DF9CF809190008F77D5
:1007400080939000CFCF809190008F7DF9CF8091E2
:100750009000877FF5CF8091A0008F778093A000D5
:10076000C1CF8091A0008F7DF9CF8091A000877FBD
:10077000F5CF809120018F7780932001B3CF8091B6
:1007800020018F7DF9CF80912001877FF5CF4E2BFF
:10079000B8CF1F93CF93DF93182FEB01FCDD209789
:1007A00031F460E0812FDF91CF911F9166CFCF3F71
:1007B000D10511F461E0F6CFE12FF0E0E65DFD4FE9
:1007C000E491E150E23108F0B3C0F0E08827E45151
:1007D000FC4F8F4F0C94F315FE0306040B04150415
:1007E0001F04980429043104390443044D045704B8
:1007F0006604700498047A0484048E0484B58068C6
:1008000084BDC7BDDF91CF911F91089584B58062EB
:1008100084BDC8BDF7CF8091800080688093800040
:10082000D0938900C0938800EDCF809180008062D2
:1008300080938000D0938B00C0938A00E3CF809197
:100840008000886080938000D0938D00C0938C00DE
:10085000D9CF8091B00080688093B000C093B3007E
:10086000D1CF8091B00080628093B000C093B4007B
:10087000C9CF80919000806880939000D0939900B8
:10088000C0939800BFCF80919000806280939000C9
:10089000D0939B00C0939A00B5CF80919000886060
:1008A00080939000D0939D00C0939C00ABCF80912B
:1008B000A00080688093A0008091A0008F7B80932F
:1008C000A000D093A900C093A8009CCF8091A00065
:1008D00080628093A000D093AB00C093AA0092CF17
:1008E0008091A00088608093A000D093AD00C09359
:1008F000AC0088CF80912001806880932001D09344
:100900002901C09328017ECF8091200180628093CD
:100910002001D0932B01C0932A0174CF8091200134
:10092000886080932001D0932D01C0932C016ACF61
:10093000C038D1050CF03ECF34CF3FB7F89480914A
:10094000F5029091F602A091F702B091F80226B557
:10095000A89B05C02F3F19F00196A11DB11D3FBFF7
:10096000BA2FA92F982F8827BC01CD01620F711DC6
:10097000811D911D42E0660F771F881F991F4A95C0
:10098000D1F708958F929F92AF92BF92CF92DF924C
:10099000EF92FF924B015C01D0DF6B017C01CDDF58
:1009A0006C197D098E099F09683E73408105910588
:1009B000B0F321E0821A9108A108B10888EEC80EB0
:1009C00083E0D81EE11CF11C81149104A104B10440
:1009D00031F7FF90EF90DF90CF90BF90AF909F9056
:1009E0008F9008952FB7F8946091F1027091F20200
:1009F0008091F3029091F4022FBF08958E579B4F80
:100A0000FC018081089589E092E0089585EF91E0EE
:100A10000895FC0187A190A50895AF92BF92CF924F
:100A2000DF92EF92FF920F931F93CF93DF93643681
:100A300071054CF0FC01EE57FB4F2081C12CD12CED
:100A4000222309F460C0DA016B01EC01BC01655E90
:100A50007D4FED91FC910190F081E02DCA01199537
:100A60008C017E012CEEE21A2DEFF20A2FEFD70156
:100A70002C93FE01EB5EFD4F2EEF20833196808399
:100A8000319690833196890F809580833196C0820C
:100A90001696DC9245E050E030E020E0C801079671
:100AA0004817590730F46191260F311D4F5F5F4F92
:100AB000F7CF085F1F4F8C0F9D1FFC01EC5EFD4FB1
:100AC000209520830130B2E01B07A8F4680157018C
:100AD000C5018E199F0980179107ACF48A819B810B
:100AE000F50161915F01DC01ED91FC910190F081D4
:100AF000E02D1995EDCF64E872E0CE016BDCCC24DB
:100B0000CA94DD24DA94C601DF91CF911F910F9131
:100B1000FF90EF90DF90CF90BF90AF9008950F932C
:100B20001F93CF93DF9300D000D000D01F92CDB79A
:100B3000DEB78C0184E292E09A8389831B821C8257
:100B40001D821E821F82188619861A86D801ED9191
:100B5000FC910190F081E02DAE014F5F5F4F6AE0A4
:100B600070E0C80119953EDFF801608771878287C0
:100B700093872A960FB6F894DEBF0FBECDBFDF91E4
:100B8000CF911F910F910895CF92DF92EF92FF9234
:100B9000DC011D921D921D921C921397FB0130E007
:100BA00020E0419150E0022E02C0440F551F0A94EC
:100BB000E2F7052E000C660B770BCD90DD90ED90E3
:100BC000FC9013974C295D296E297F294D935D93E5
:100BD0006D937C931397285F3F4F2032310509F7BF
:100BE000FF90EF90DF90CF900895FC0140835183F8
:100BF000128213820895CF93DF9380910002909127
:100C00000102892B09F448C01092010210920002DF
:100C100061E08BE132DD61E08AE12FDDC091EE021F
:100C2000D091EF021C161D06BCF4BE0188E0B1DDB8
:100C3000BE0189E0AEDDBE018AE0ABDDBE018BE026
:100C4000A8DDD093EF02C093EE0262E070E080E096
:100C500090E098DE2197E6CF60E087E10EDD60E06E
:100C600086E10BDD60E088E108DD60E089E105DD1B
:100C700060E08CE102DD60E08DE1FFDC60E08FE1AF
:100C8000FCDC60E08EE1F9DC60E08BE1F6DC60E04A
:100C90008AE1DF91CF91F1CCDF91CF9108950F934D
:100CA0001F93CF93DF93EC016C817D818E819F81B7
:100CB0000E9431158B016A8D7B8D8C8D9D8D0E94DC
:100CC0003115EB01101611060CF051C0209709F0F8
:100CD0003BC18091000290910102019709F442C04A
:100CE00001E010E0109301020093000284DF1093F2
:100CF00001020093000261E087E1BFDC60E086E171
:100D0000BCDC61E088E1B9DC60E089E1B6DC61E08F
:100D10008CE1B3DC60E08DE1B0DC61E08FE1ADDC63
:100D200060E08EE1AADC61E08BE1A7DC61E08AE1B2
:100D3000A4DCBE0188E02DDDBE0189E02ADDBE0114
:100D40008AE027DDBE018BE024DDD093EF02C09363
:100D5000EE0265E070E080E090E014DE2196C63996
:100D6000D10539F7DF91CF911F910F9108950115AA
:100D7000110509F44CC0209709F0E6C080910002EB
:100D800090910102029771F302E010E010930102CA
:100D90000093000230DF109301020093000260E034
:100DA00087E16BDC61E086E168DC60E088E165DCBE
:100DB00061E089E162DC60E08CE15FDC61E08DE1B3
:100DC0005CDC60E08FE159DC61E08EE156DC61E0E3
:100DD0008BE153DC61E08AE150DCBE0188E0D9DCC4
:100DE000BE0189E0D6DCBE018AE0D3DCBE018BE027
:100DF000D0DCD093EF02C093EE0265E070E080E0BB
:100E000090E0C0DD2196C639D10539F7ABCF1C166D
:100E10001D060CF04BC080910002909101020397D7
:100E200009F4A0CFC3E0D0E0D0930102C093000248
:100E3000E2DED0930102C093000261E087E11DDC95
:100E400060E086E11ADC61E088E117DC60E089E1BE
:100E500014DC60E08CE111DC61E08DE10EDC60E02F
:100E60008FE10BDC61E08EE108DC61E08BE105DC09
:100E700061E08AE102DCB80188E08BDCB80189E03E
:100E800088DCB8018AE085DCB8018BE082DC109355
:100E9000EF020093EE0265E070E080E090E072DD2A
:100EA0000F5F1F4F0436110531F75CCFCD2B09F4CE
:100EB0004BC08091000290910102049709F452CF37
:100EC000C4E0D0E0D0930102C093000294DED0933E
:100ED0000102C093000260E087E1CFDB61E086E1C0
:100EE000CCDB60E088E1C9DB61E089E1C6DB61E081
:100EF0008CE1C3DB60E08DE1C0DB61E08FE1BDDB55
:100F000060E08EE1BADB61E08BE1B7DB61E08AE1B2
:100F1000B4DBB80188E03DDCB80189E03ADCB80117
:100F20008AE037DCB8018BE034DC1093EF020093E9
:100F3000EE0265E070E080E090E024DD0F5F1F4F7F
:100F40000436110531F70ECFDF91CF911F910F912C
:100F500052CE84ED91E008958EEB91E00895CF9309
:100F6000DF93DC0116968D919C911797FB011696E5
:100F70004D915C91179714962D913C911597453999
:100F80005105CCF46491240F351FE901688316964E
:100F90002D913C91179731961496CD91DC91159730
:100FA000C20FD31F48812F5F3F4F17963C932E935C
:100FB00016974111DCCF16962D913C911797253944
:100FC000310534F022E030E019963C932E931897C7
:100FD00014962D913C91820F931FDF91CF9108952C
:100FE000BECF4111BCCFCB0108958DE991E00895AA
:100FF00081E891E0089580E691E008958DE491E024
:1010000008954F925F926F927F928F929F92AF92CC
:10101000BF92EF92FF920F931F93CF93DF9300D075
:101020001F92CDB7DEB77C018B01FB018191BF011F
:10103000F7018283CE010196A7DD89819A81AB8178
:10104000BC814C015D01F5E08F0E911CA11CB11C0F
:10105000A8014C5F5F4FFA0125E030E02901712CB7
:10106000612C481459046A047B0428F4618161935B
:101070002F5F3F4FF3CFF801E80FF91F1482F701FC
:101080005483438305960F900F900F900F90DF913C
:10109000CF911F910F91FF90EF90BF90AF909F90D5
:1010A0008F907F906F905F904F9008958CE291E0C9
:1010B000089583E191E008954F925F926F927F923D
:1010C0008F929F92AF92BF92CF92DF92EF92FF9258
:1010D0000F931F93CF93DF93CDB7DEB72C970FB647
:1010E000F894DEBF0FBECDBF7C018B01DB018C917C
:1010F00090E0F7019383828311962C91922B938336
:1011000082836E5F7F4FCE0101963EDD89809A809B
:10111000AB80BC8024013501F6E04F0E511C611CF0
:10112000711C98012B5F3F4FF90186E090E0AC0104
:1011300070E060E0441555056605770520F44181AF
:1011400041930196F4CFB4016A5F7F4FF801E80D37
:10115000F91D1582D70115963C932E931497600FB5
:10116000711FCE01059610DDBAE08B0E911C4D80EB
:101170005E806F807884C401092C000CAA0BBB0B25
:101180005C016D01A40CB51CC61CD71CF801E80D50
:10119000F91DAF01401B510B70E060E04A155B0583
:1011A0006C057D0538F42191AF0142505109DA01F7
:1011B0002C93EFCF480C591CB801640D751DFB0131
:1011C00031971082C4010197800F911FF701978317
:1011D0008683CE010996D8DC92012C5F3F4F89842B
:1011E0009A84AB84BC84A901032E000C660B770B98
:1011F000480D591D6A1D7B1DF801E20FF31FCF0139
:10120000801B910BB0E0A0E084179507A607B707F5
:1012100028F48191DF0112978C93F1CFC901880DD9
:10122000991DF801E80FF91FDF0111971C92215059
:101230003109020F131FD70119961C930E931897AB
:101240002181428150E070E060E0BA0155274427D7
:10125000522B2081422B2381722BF7014287538727
:101260006487758704962C960FB6F894DEBF0FBE80
:10127000CDBFDF91CF911F910F91FF90EF90DF9045
:10128000CF90BF90AF909F908F907F906F905F9026
:101290004F90089582EF90E0089584EE90E00895D5
:1012A000FC01DB014C9150E070E060E0428353832D
:1012B0006483758311968C911197582B42835383C5
:1012C0006483758312968C911297682B42835383A3
:1012D0006483758313968C911397782B4283538381
:1012E0006483758314964C91149750E070E060E02D
:1012F000468357836087718715968C911597582B75
:10130000468357836087718716968C911697682B52
:10131000468357836087718717968C91782B468315
:1013200057836087718788E090E00895DC01FB01B6
:1013300012968C911297808313968C9113978183C8
:1013400014968C911497828315968C9115978383AC
:1013500016968C911697848317968C911797858390
:1013600018968C911897868319968C91878388E0BC
:1013700090E00895CF92DF92EF92FF920F931F9328
:10138000FC01DB01C3800C2D10E030E020E045E0E3
:1013900036952795179507954A95D1F70D931D9387
:1013A0002D933C9313978481C82ED12CF12CE12CE2
:1013B00053E0CC0CDD1CEE1CFF1C5A95D1F7C02A63
:1013C000D12AE22AF32ACD92DD92ED92FC92139774
:1013D0008581082F10E030E020E06BE0000F111F46
:1013E000221F331F6A95D1F70C291D292E293F2969
:1013F0000D931D932D933C931397468150E070E01D
:1014000060E083E1440F551F661F771F8A95D1F76F
:101410004427552768777727042B152B262B372B46
:101420000D931D932D933C931397478150E070E0EB
:1014300060E094E0440F551F661F771F9A95D1F71F
:10144000407F577066277727C680D12CF12CE12C7E
:1014500084E0F694E794D794C7948A95D1F74C2901
:101460005D296E297F294115510561057105A1F09E
:10147000405853406109710997E1440F551F661F99
:10148000771F9A95D1F7402B512B622B732B4D93DD
:101490005D936D937C931397478150E070E060E01B
:1014A000742F6627552744274427552766277078C9
:1014B0000D911D912D913C911397402B512B622B37
:1014C000732B4D935D936D937C93139788E090E01D
:1014D0001F910F91FF90EF90DF90CF900895EF92C2
:1014E000FF920F931F93CF93DF938C017B01BC017D
:1014F0006E5F7F4FC7013EDFEC01B8016A5F7F4F2F
:10150000C7018C0F9D1F36DFC80FD91FB801665F5A
:101510007F4FC7018C0F9D1F2DDF8C0F9D1FDF910B
:10152000CF911F910F91FF90EF900895EF92FF924E
:101530000F931F93CF93DF937C01EB010296CFDFD4
:101540008C01BE01680F791FC7014096C8DF800F6C
:10155000911FDF91CF911F910F91FF90EF90089510
:101560000F931F93CF93DF938C01EC012796CE014D
:10157000DDDFD8019596ED91FC91CE01DF91CF9101
:101580001F910F9119948F929F92AF92BF92CF9219
:10159000DF92EF92FF92CF93DF93EC014A015B0160
:1015A000DB01CA0147E1B595A795979587954A95BF
:1015B000D1F79927AA27BB270097A105B10521F0EC
:1015C00080589C4FAF4FBF4F188219821A82B501C5
:1015D000A40125E0440F551F661F771F2A95D1F7F8
:1015E0004B83B501A40133E07595679557954795F1
:1015F0003A95D1F74C83B501A401EBE07595679559
:1016000057954795EA95D1F74D83B501A401F3E1CC
:101610007595679557954795FA95D1F74F706C0179
:101620007D0124E0CC0CDD1CEE1CFF1C2A95D1F7BB
:101630004C294E836C017D0134E0F594E794D794F6
:10164000C7943A95D1F720E030E0A901C501B40173
:101650000E942D1587FD0EC0CF8288E090E0DF91BB
:10166000CF91FF90EF90DF90CF90BF90AF909F9081
:101670008F9008958C2D80688F83EFCFEF92FF922B
:101680000F931F93CF93DF937C018B01FC01428169
:10169000538164817581C80176DFEC01F7014681D1
:1016A000578160857185C8018C0F9D1F6CDFC80F45
:1016B000D91FF7014285538564857585C8018C0F54
:1016C0009D1F61DF8C0F9D1FDF91CF911F910F91A7
:1016D000FF90EF900895EF92FF920F931F93CF9397
:1016E000DF937C01EB010296C9DF8C01BE01680F1C
:1016F000791FC7014096C2DF800F911FDF91CF9104
:101700001F910F91FF90EF900895FC0184819581C6
:101710000C94C416CF93DF93EC01F7DFCE01DF9179
:10172000CF910C94C4162F923F924F925F926F927A
:101730007F928F929F92AF92BF92CF92DF92EF9261
:10174000FF920F931F93CF93DF93CDB7DEB72E9702
:101750000FB6F894DEBF0FBECDBF8C016B01DB016D
:101760008D909D90AD90BC90FC0182819381A4816D
:10177000B58188159905AA05BB0570F4B401660FFB
:10178000771F660F771F828593850E944D17D801BA
:101790001B969C938E931A97F80182829382A4825F
:1017A000B582C60140E050E0BA01A4E0EA2EF12C77
:1017B00098012A5F3F4FDC011596EC91159716961C
:1017C0004C901697512C712C612C320155244424D5
:1017D0005E2A1496EC9114974E2A1796EC917E2A65
:1017E000D7011701E4E02E0E311C71010496F801B7
:1017F00082809380A480B580481559056A057B05D1
:10180000A8F446825782608671861497A284B384B6
:10181000AA0DBB1DE4E0BE2EF90101900D92BA9411
:10182000E1F74F5F5F4F6F4F7F4FC5CF8485958541
:10183000A685B78584159505A605B70570F4B20190
:10184000660F771F660F771F848995890E944D1751
:10185000D80155969C938E935497F80144865586EB
:1018600066867786C601820D931D412C512C32016C
:101870001C019801205F3F4FDC0111966C9111977C
:1018800012968C901297912CB12CA12C5401992472
:101890008824962A6C91862A13966C91B62AB4E015
:1018A000EB0EF11CF8014485558566857785441655
:1018B000550666067706C0F4808A918AA28AB38AA2
:1018C000BC0162197309A489B589A60FB71F64E02A
:1018D000F90101900D926A95E1F7BFEF4B1A5B0A8F
:1018E0006B0A7B0A0496C8CF86899789A08DB18D33
:1018F00088159905AA05BB0560F4B401660F771F2A
:10190000848D958D0E944D17D8015D969C938E9382
:101910005C97F801868A978AA08EB18E412C512C53
:1019200032011801FAE12F0E311CF80186899789DE
:10193000A08DB18D481659066A067B0608F05BC07B
:10194000B6016E0D7F1DCE0101961ED997012C5F49
:101950003F4F3E872D8789809A80AB80BC80C9012C
:10196000032E000CAA0BBB0BAC01BD01480D591D89
:101970006A1D7B1D49875A876B877C87F901EC0DAF
:10198000FD1D9F012C193D09B90190E080E02985DA
:101990003A854B855C85621773078407950728F4A1
:1019A0002191DF0112972C93ECCFED84FE84E80C9B
:1019B000F91CF601EE0DFF1D319710828D859E8575
:1019C00001978C0D9D1DD8015B969C938E935A9721
:1019D000C201880F991F5C96ED91FC91E80FF91FE9
:1019E000D1018D919C9191838083BFEF4B1A5B0A4B
:1019F0006B0A7B0A9ACFC7012E960FB6F894DEBF0A
:101A00000FBECDBFDF91CF911F910F91FF90EF904F
:101A1000DF90CF90BF90AF909F908F907F906F900E
:101A20005F904F903F902F9008952F923F924F924A
:101A30005F926F927F928F929F92AF92BF92CF925E
:101A4000DF92EF92FF920F931F93CF93DF93CDB767
:101A5000DEB7E0970FB6F894DEBF0FBECDBF8C01A6
:101A60000E94F2042B013C01980129573B4F3E8F05
:101A70002D8FF90180819181A281B381A30192010F
:101A8000281B390B4A0B5B0BDA01C901893F9A42CB
:101A9000A105B10510F035971082480148E8841A75
:101AA0004BEF940AD4018D919C91892B79F0F80128
:101AB000E557FB4F80819181A281B3818415950503
:101AC000A605B70518F4F401118210829801205878
:101AD0003B4F3A8F298FA80144585B4F5C8F4B8F47
:101AE000180154E1250E311CC8018E579B4F9AA353
:101AF00089A3D801A057BB4FB8A7AFA3F801E157FE
:101B0000FB4FFAA7E9A75801F6E8AF1AFBEFBF0AA7
:101B10002250310938A32F8FA80145575B4F5CA78E
:101B20004BA7D301C2014496A11DB11D8DA79EA74D
:101B3000AFA7B8ABD80112968D919C91DC01ED91C5
:101B4000FC910284F385E02D19959C0197FDEEC26E
:101B5000E98DFA8D80819181820F931F918380831B
:101B6000D4014D915C91119747305105E1F4EF8D0F
:101B7000F8A180819181AC014F5F5F4F5183408319
:101B8000800F911FDC0154962C93F5018081918187
:101B9000019791838083892B69F688E090E0D401D6
:101BA0008D939C93C7CF4115510509F03FC02F3F3E
:101BB000310589F481E090E0F401918380832DA5C3
:101BC0003EA54FA558A9ABA5BCA52D933D934D931C
:101BD0005C931397AFCF0E94F204641975098609CC
:101BE0009709663071058105910508F4A3CFF801C6
:101BF000EE57FB4F10828EEF9FEFE0960FB6F894F2
:101C0000DEBF0FBECDBFDF91CF911F910F91FF902F
:101C1000EF90DF90CF90BF90AF909F908F907F908C
:101C20006F905F904F903F902F90089541305105F5
:101C300081F482E090E02E3F310571F11D921C92FB
:101C4000E9A1FAA18081811175CFC8010E948F0599
:101C500071CF4230510589F4D5012D933C93EF8D1E
:101C6000F8A11182108283E090E0D4018D939C93BF
:101C7000E98DFA8D318320835DCF4330510581F4A6
:101C8000322F2227D5018D919C911197280F391F52
:101C90002D933C9384E090E0F401918380834ACFBC
:101CA0004430510569F460E071E068D78F3F9105D9
:101CB00019F485E090E073CFF401118210823ACFDD
:101CC0004530510571F4AB8DBC8D2D933C9386E06E
:101CD00090E0F40191838083A98DBA8D2D933C937C
:101CE00029CF4630510591F4322F2227EB8DFC8D00
:101CF00080819181280F391F3183208387E090E014
:101D00008D939C93F5018081918145CF4830510599
:101D100009F010CF1D921C9260E071E02FD78F3F29
:101D2000910509F007CFAB8DBC8DED91FC913097FB
:101D300009F034C1C8010E948F058CE092E09A83BB
:101D400089831C821B828CEB92E09E838D83988713
:101D50008F839A8789871B861C861D861E8668014D
:101D6000BCEECB1ABBEFDB0A7801EAEBEE1AEBEF25
:101D7000FE0A28E1222E22E0322ED601AD90BC9040
:101D8000A114B10409F46BC01A8A198A388A2F8603
:101D90001E8A1D8A86E990E05BD79C8B8B8BFC01A9
:101DA00010828B569F4FDC011C92F5018581968134
:101DB0009C838B83608171814281CE010F9611D902
:101DC0009E838D83D601ED91FC9183819481DC010A
:101DD000ED91FC910480F581E02D1995BC01CE01B7
:101DE0000F96BDD898878F83D601ED91FC918381A2
:101DF0009481DC01ED91FC910680F781E02D19952D
:101E0000BC01CE010F96ABD89A87898720E032E0DB
:101E100040E050E02B873C874D875E87D601ED91EF
:101E2000FC9161857285D801ED91FC910190F08162
:101E3000E02DAE014F5F5F4FC801199589899A89DE
:101E40006DEB72E08130910521F0029729F461ED8C
:101E500072E0C8010E94EA01CE010F9656DCB2E0A2
:101E6000CB0ED11CEC14FD0409F087CF98E1A92E0C
:101E700092E0B92EF701C080D180C114D10409F4D9
:101E800072C01A8A198AB88AAF861E8A1D8A86E9A4
:101E900090E0DED69C8B8B8BDC011C928B569F4F87
:101EA000FC011082D60112968D919C9113979C8310
:101EB0008B8314966D917C91159716964C91CE015B
:101EC0000F968FD89E838D83F70180819181DC01ED
:101ED000ED91FC910480F581E02D1995BC01CE01B6
:101EE0000F963DD898878F83F70180819181DC011F
:101EF000ED91FC910680F781E02D1995BC01CE0192
:101F00000F962DD89A87898720E032E040E050E094
:101F10002B873C874D875E87D801ED91FC91C0806F
:101F2000D180F70180819181DC01ED91FC910280EB
:101F3000F381E02D1995AE014F5F5F4FBC01C801E1
:101F4000F601199589899A896DEB72E081309105C6
:101F500021F0029729F461ED72E0C8010E94EA01C4
:101F6000CE010F96D2DBF2E0EF0EF11C8E149F042F
:101F700009F080CFF801EE57FB4F81E08083319666
:101F80004082518262827382AD8DBE8D4D925D9290
:101F90006D927C9213978FEF9FEF2FCEEA30F10571
:101FA00009F09DC084E292E09A8389831B821C829F
:101FB0001D821E821F82188619861A860E94F204CC
:101FC000F801C084D184E284F3849B01AC012C1914
:101FD0003D094E095F0969017A01B101CE010196FF
:101FE0005FD9C701B60128EE33E040E050E0D9D513
:101FF00069017A019B01AC018B819C81AD81BE811D
:102000008C0D9D1DAE1DBF1D8B839C83AD83BE8338
:1020100060E472E48FE090E0A2D5CF80D884E984B8
:10202000FA84DC01CB018C0D9D1DAE1DBF1D8F837D
:102030009887A987BA870E94F204CF80D884E98460
:10204000FA8436E3D31A35E6E30A34ECF30A28EED1
:1020500033E040E050E0A5D52BA33CA34DA35EA305
:102060009B01AC0160E472E48FE090E078D5A701B9
:102070009601261B370B480B590BCA01B901CB80BF
:10208000DC80ED80FE8031E0C31AD108E108F10860
:102090002BA13CA14DA15EA1C21AD30AE40AF50A04
:1020A00020E03AEC4AE95BE37CD52C0D3D1D4E1D4A
:1020B0005F1DD8011C962D933D934D935C931F9704
:1020C000F801608B718B828B938B0E94F204AD8D33
:1020D000BE8D6D937D938D939C9313972BCDE6309E
:1020E000F10549F4B1018FA198A51DDB81E0E9A5B7
:1020F000FAA580831FCDEB30F10521F4A9A1BAA187
:102100001C9218CDE154FE4FEE0FFF1FE00FF11FA0
:1021100080819181009709F40DCDDC01ED91FC9156
:102120000190F081E02DB101199504CDF801EE5731
:10213000FB4F8081882301F17801BDE7EB1ABBEFEB
:10214000FB0AF70180819181A281B381A3019201F1
:10215000281B390B4A0B5B0BDA01C901853C9940FE
:10216000A105B10548F0C8010E948F05D7014D9225
:102170005D926D927C92139790E080E03ECD4F92FD
:102180005F926F927F928F929F92AF92BF92CF9207
:10219000DF92EF92FF920F931F93CF93DF93EC01A7
:1021A0007B018A81FB0180838B8181838C81828387
:1021B0008D8183833496412C512C320104E010E050
:1021C0009F012F5F3F4FCF010296DF011396A801B9
:1021D0000C5F1F4F8A809B80AC80BD8048145904DF
:1021E0006A047B04C8F4AA85BB85A40FB51F1497A5
:1021F0004C9111962C91119712969C9112971396CF
:102200008C9140832183928383838FEF481A580AED
:10221000680A780A3496D4CF4C8540834D85F901FD
:1022200040832E85FC0120838F858C93F701E00F7E
:10223000F11F412C512C3201AF019F012F5F3F4F05
:10224000CF010296DF0113960C5F1F4F8C849D8493
:10225000AE84BF84481459046A047B04D8F4CF01C7
:10226000841B950BAC89BD89A80FB91F3C911196B1
:102270002C91119712969C91129713968C91308302
:102280002183928383838FEF481A580A680A780A59
:102290003496D3CF4E8940834F89F9014083288DEE
:1022A000FC012083898D8C93412C512C32018E8925
:1022B0009F89A88DB98D481659066A067B0678F560
:1022C0005201AA0CBB1CEC8DFD8DEA0DFB1DA081FB
:1022D000B181FD0101900020E9F731976F01CA1A21
:1022E000DB0AA60170E060E0C701800F911F0E9429
:1022F000F5050C5F1F4F8C8D9D8DA80EB91EF50145
:1023000060817181A601C701800F911FA2D60C0DBB
:102310001D1DFFEF4F1A5F0A6F0A7F0AC8CFC80161
:10232000DF91CF911F910F91FF90EF90DF90CF90B1
:10233000BF90AF909F908F907F906F905F904F90E5
:102340000895EF92FF920F931F93CF93DF938C0129
:102350007B01DC0112962C911297FB012193CF0196
:102360001396ED91FC91EF0109900020E9F7219778
:10237000CE1BDF0BAE0170E060E00E94F505D801D6
:1023800013966D917C91AE01C701059662D6CE0180
:102390000596DF91CF911F910F91FF90EF900895D7
:1023A000CF92DF92EF92FF920F931F93CF93DF9321
:1023B0006C01EB01DC0112968C91129788831396C5
:1023C0008C91139789831496ED91FC91DF010D9008
:1023D0000020E9F78D01015011090E1B1F0BA80108
:1023E00070E060E0CE0102960E94F505F60164817E
:1023F0007581A801CE0106962CD6C8010696F60175
:10240000A681B781FD0101900020E9F731977F0196
:10241000EA1AFB0AA70170E060E08C0F9D1F0E9482
:10242000F505065F1F4FD60116966D917C91A701A9
:10243000CE01800F911F0DD60E0D1F1DF601A08538
:10244000B185FD0101900020E9F731977F01EA1A7B
:10245000FB0AA70170E060E0CE01800F911F0E948F
:10246000F5050C5F1F4FD60118966D917C91A70161
:10247000CE01800F911FEDD5C701800F911FF6018E
:102480006285438534852585C80FD91F68834983B4
:102490003A832B830496DF91CF911F910F91FF9088
:1024A000EF90DF90CF9008951F920F920FB60F928A
:1024B00011240BB60F922F933F934F935F936F931B
:1024C0007F938F939F93AF93BF93EF93FF9389EF86
:1024D00092E00E948002FF91EF91BF91AF919F9196
:1024E0008F917F916F915F914F913F912F910F90BD
:1024F0000BBE0F900FBE0F901F9018951F920F925A
:102500000FB60F9211240BB60F922F938F939F93B8
:10251000EF93FF93E0910903F0910A038081E0912A
:102520000F03F091100382FD1DC090818091120372
:102530008F5F8F7320911303821741F0E091120394
:10254000F0E0E750FD4F958F80931203FF91EF91DC
:102550009F918F912F910F900BBE0F900FBE0F90F8
:102560001F9018958081F2CF1F920F920FB60F9295
:1025700011242F933F938F939F93AF93BF93809199
:10258000F1029091F202A091F302B091F402309125
:10259000F00223E0230F2D3758F50196A11DB11D40
:1025A0002093F0028093F1029093F202A093F30241
:1025B000B093F4028091F5029091F602A091F70297
:1025C000B091F8020196A11DB11D8093F502909380
:1025D000F602A093F702B093F802BF91AF919F91DA
:1025E0008F913F912F910F900FBE0F901F901895D4
:1025F00026E8230F0296A11DB11DD2CF1092FC0236
:102600001092FB0288EE93E0A0E0B0E08093FD0220
:102610009093FE02A093FF02B09300038CE392E03C
:102620009093FA028093F90285EC90E09093060370
:102630008093050384EC90E0909308038093070354
:1026400080EC90E090930A038093090381EC90E082
:1026500090930C0380930B0382EC90E090930E0315
:1026600080930D0386EC90E09093100380930F030A
:102670001092120310921303109214031092150378
:1026800082E792E09093C0038093BF0389EF92E0CA
:102690009093C2038093C10380E091EEA0E0B0E08C
:1026A0008093C3039093C403A093C503B093C60360
:1026B0001092410886E692E09093500880934F086C
:1026C00010926508109266081092670810926808C8
:1026D00010926C0810926B08E3EDF7E011921192E2
:1026E00088E0E530F807D1F7E5E0F8E011921192C3
:1026F00088E0E733F807D1F7E3EDF3E083ED95E009
:1027000011928E179F07E1F7E3EDF5E0119287E054
:10271000E33DF807D9F71092510810925208109231
:1027200053081092540810925A08109259081092A7
:102730005B0810925C0810925D0810925E0810927F
:102740006408109263088CE792E09093970380935B
:1027500096038AE592E090939E0380939D038EE416
:1027600092E09093A00380939F031092A103109294
:10277000A2031092A3031092A4031092A503109237
:10278000A6031092A7031092A8031092A903109217
:10279000AA031092AB031092AC039093AE03809304
:1027A000AD031092AF031092B0031092B1031092D8
:1027B000B2031092B3031092B4031092B5031092B7
:1027C000B6031092B7031092B8031092B903109297
:1027D000BA038FE496E09093BC038093BB0381E03F
:1027E00090E09093BE038093BD0385EE92E09093BA
:1027F0009B0380939A0310929C030895789484B568
:10280000826084BD84B5816084BD85B5826085BDEC
:1028100085B5816085BD80916E00816080936E007A
:10282000109281008091810082608093810080916C
:10283000810081608093810080918000816080931D
:1028400080008091B10084608093B1008091B000DD
:1028500081608093B00080919100826080939100AC
:1028600080919100816080939100809190008160BF
:10287000809390008091A10082608093A10080915C
:10288000A10081608093A1008091A000816080936D
:10289000A00080912101826080932101809121011B
:1028A00081608093210180912001816080932001CB
:1028B00080917A00846080937A0080917A008260AF
:1028C00080937A0080917A00816080937A00809171
:1028D0007A00806880937A001092C100C091C10391
:1028E000D091C203C090C303D090C403E090C5034D
:1028F000F090C60360E079E08DE390E0A7019601D7
:1029000050D12150310941095109569547953795C4
:102910002795E889F98982E08083C11481EED80681
:10292000E104F10421F0211580E1380790F0E889F5
:10293000F989108260E874E88EE190E0A7019601C1
:1029400030D12150310941095109569547953795A4
:102950002795EC85FD853083EE85FF852083188ED5
:10296000EC89FD8986E08083EA89FB89808180612A
:102970008083EA89FB89808188608083EA89FB897A
:10298000808180688083EA89FB8980818F7D808354
:10299000109238081092370810923A0810923908AD
:1029A00010923E0810923D0810923C0810923B088D
:1029B000E5E0F8E090E080E021913191232B09F0EF
:1029C00046C0FC01EE0FFF1FEB5FF74F26E933E037
:1029D000318320838C599F4F909399038093980360
:1029E00087E10E94CB0186E10E94CB0188E00E9432
:1029F000CB018BE10E94CB0188E10E94CB0189E1F0
:102A00000E94CB0189E00E94CB018CE10E94CB01A6
:102A10008DE10E94CB018AE00E94CB018AE10E94F5
:102A2000CB018FE10E94CB018EE10E94CB018BE0B4
:102A30000E94CB018FEB93E00E94150D61E070E0E6
:102A400080E090E00E94C2040E940D03F3CF019643
:102A50008931910509F0B0CFC3CF34D008F481E0BB
:102A6000089504D06894B11174C0089557D088F0C7
:102A70009F5790F0B92F9927B751A0F0D1F0660F6A
:102A8000771F881F991F1AF0BA95C9F712C0B13085
:102A900081F05ED0B1E008955BC0672F782F882762
:102AA000B85F39F0B93FCCF3869577956795B395C4
:102AB000D9F73EF490958095709561957F4F8F4F33
:102AC0009F4F0895990F0008550FAA0BE0E8FEEFFD
:102AD00016161706E807F907C0F012161306E407E2
:102AE000F50798F0621B730B840B950B39F40A26DB
:102AF00061F0232B242B252B21F408950A2609F4B9
:102B0000A140A6958FEF811D811D089557FD905816
:102B1000440F551F59F05F3F71F04795880F97FBA1
:102B2000991F61F09F3F79F087950895121613065B
:102B30001406551FF2CF4695F1DF08C0161617068A
:102B40001806991FF1CF86957105610508940895BF
:102B5000E894BB2766277727CB0197F90895DB0117
:102B60008F939F9348D0BF91AF91A29F800D911DED
:102B7000A39F900DB29F900D1124089597FB072EEF
:102B800016F4009406D077FD08D03FD007FC05D09E
:102B90003EF4909581959F4F0895709561957F4F74
:102BA0000895A1E21A2EAA1BBB1BFD010DC0AA1F8E
:102BB000BB1FEE1FFF1FA217B307E407F50720F0A6
:102BC000A21BB30BE40BF50B661F771F881F991F21
:102BD0001A9469F760957095809590959B01AC016A
:102BE000BD01CF010895EE0FFF1F881F8BBF079017
:102BF000F691E02D19941DD0A59F900DB49F900DD6
:102C0000A49F800D911D11240895AA1BBB1B51E1A7
:102C100007C0AA1FBB1FA617B70710F0A61BB70B4C
:102C2000881F991F5A95A9F780959095BC01CD01F1
:102C30000895A29FB001B39FC001A39F700D811D95
:102C40001124911DB29F700D811D1124911D0895B5
:102C50000F931F93CF93DF938230910510F482E09E
:102C600090E0E0916F08F091700830E020E0B0E073
:102C7000A0E0309799F42115310509F44AC0281BCA
:102C8000390B24303105D8F58A819B816115710596
:102C900089F1FB0193838283FE0111C04081518140
:102CA0000281138148175907E0F04817590799F432
:102CB000109761F012960C93129713961C9332960C
:102CC000CF01DF91CF911F910F91089500936F086D
:102CD00010937008F4CF2115310551F042175307B6
:102CE00038F0A901DB019A01BD01DF01F801C1CF74
:102CF000EF01F9CF9093700880936F08CDCFFE015C
:102D0000E20FF31F81939193225031093983288375
:102D1000D7CF20916D0830916E08232B41F420917C
:102D200004023091050230936E0820936D082091C3
:102D30000202309103022115310541F42DB73EB74F
:102D40004091060250910702241B350BE0916D085B
:102D5000F0916E08E217F307A0F42E1B3F0B281723
:102D6000390778F0AC014E5F5F4F2417350748F004
:102D70004E0F5F1F50936E0840936D08819391939F
:102D80009FCFF0E0E0E09CCFCF93DF930097E9F096
:102D9000FC01329713821282A0916F08B0917008E3
:102DA000ED0130E020E01097A1F420813181820F05
:102DB000931F20916D0830916E082817390709F08C
:102DC00061C0F0936E08E0936D08DF91CF91089594
:102DD000EA01CE17DF07E8F54A815B819E014115C4
:102DE0005105B1F7E901FB83EA8349915991C40F79
:102DF000D51FEC17FD0761F4808191810296840F45
:102E0000951FE90199838883828193819B838A83BB
:102E1000F0E0E0E012968D919C9113970097B9F540
:102E20002D913C911197CD010296820F931F209115
:102E30006D0830916E082817390739F6309751F52B
:102E40001092700810926F08B0936E08A0936D08EE
:102E5000BCCFD383C28340815181840F951FC81793
:102E6000D90761F44E5F5F4F88819981480F591FE0
:102E7000518340838A819B8193838283211531050D
:102E800009F0B0CFF0937008E0936F089ECFFD017A
:102E9000DC01C0CF13821282D7CF4F925F926F9224
:102EA0007F928F929F92AF92BF92CF92DF92EF92DA
:102EB000FF920F931F93CF93DF938C01009791F4B0
:102EC000CB01DF91CF911F910F91FF90EF90DF9099
:102ED000CF90BF90AF909F908F907F906F905F90BA
:102EE0004F90B6CEFC01E60FF71F9C01225031092E
:102EF000E217F30708F4AAC0D901CD91DC9111972C
:102F0000C617D70718F1C530D10570F0CE01049768
:102F10008617970748F0C61BD70B2297C193D1930A
:102F20006D937C93CF0130DFC801DF91CF911F916A
:102F30000F91FF90EF90DF90CF90BF90AF909F9058
:102F40008F907F906F905F904F9008955B01AC1AC7
:102F5000BD0A4C018C0E9D1EA0916F08B0917008A7
:102F6000512C412CF12CE12C109731F580916D08FA
:102F700090916E088815990509F05CC046165706B1
:102F800008F058C08091020290910302009741F42A
:102F90008DB79EB74091060250910702841B950B96
:102FA000E817F90708F052C0F0936E08E0936D0837
:102FB000F90171836083B8CF8D919C91119712961E
:102FC0006C90129713967C901397A815B90559F534
:102FD0006C0142E0C40ED11CCA14DB0420F1AC0128
:102FE0004A195B09DA011296159780F062827382A2
:102FF00051834083D9016D937C93E114F10471F006
:10300000D7011396FC93EE9312978ECF22968C0FD6
:103010009D1FF90191838083F301EFCFF093700836
:10302000E0936F0881CF4816590608F42C017D0102
:10303000D3019ACFCB010CDE7C01009739F0AE01B1
:10304000B80107D0C801A0DE87016ECF10E000E014
:103050006BCFFB01DC0102C001900D92415050404A
:08306000D8F70895F894FFCFA2
:10306800FFFF00007108800000000000D0115C081C
:103078005908560800000000F107850B8A0BF00775
:1030880000000000960950094D094A090000000097
:10309800A1110108FE07FB0700000000A2020D02B3
:1030A8003A02EE026B0249025D02000000003E0B8C
:1030B8006F0AAC07A907000000006B0B960A06050B
:1030C800030500000000BF10930BF807F507000088
:1030D80000000D05150DFE0400000000B00A0905EA
:1030E800060503054D6573736167652066726F6D2C
:1030F800206465766963652064726F707065643AF0
:10310800206D657373616765206C617267657220F5
:103118007468616E206275666665722E00466C6121
:1031280073682072656164206E6F7420696D706CBD
:1031380000427566666572206F766572666C6F7799
:0E3148002070756200636D645F76656C000038
:020000023000CC
:10E000000D9489F10D94B2F10D94B2F10D94B2F129
:10E010000D94B2F10D94B2F10D94B2F10D94B2F1F0
:10E020000D94B2F10D94B2F10D94B2F10D94B2F1E0
:10E030000D94B2F10D94B2F10D94B2F10D94B2F1D0
:10E040000D94B2F10D94B2F10D94B2F10D94B2F1C0
:10E050000D94B2F10D94B2F10D94B2F10D94B2F1B0
:10E060000D94B2F10D94B2F10D94B2F10D94B2F1A0
:10E070000D94B2F10D94B2F10D94B2F10D94B2F190
:10E080000D94B2F10D94B2F10D94B2F10D94B2F180
:10E090000D94B2F10D94B2F10D94B2F10D94B2F170
:10E0A0000D94B2F10D94B2F10D94B2F10D94B2F160
:10E0B0000D94B2F10D94B2F10D94B2F10D94B2F150
:10E0C0000D94B2F10D94B2F10D94B2F10D94B2F140
:10E0D0000D94B2F10D94B2F10D94B2F10D94B2F130
:10E0E0000D94B2F141546D656761323536300041AF
:10E0F000726475696E6F206578706C6F72657220DE
:10E1000073746B3530305632206279204D4C530099
:10E11000426F6F746C6F616465723E004875683F52
:10E1200000436F6D70696C6564206F6E203D200048
:10E130004350552054797065202020203D20005FF9
:10E140005F4156525F415243485F5F3D2000415658
:10E1500052204C696243205665723D20004743437C
:10E160002056657273696F6E203D20004350552024
:10E1700049442020202020203D20004C6F7720663D
:10E18000757365202020203D20004869676820665F
:10E190007573652020203D200045787420667573D6
:10E1A00065202020203D20004C6F636B2066757336
:10E1B000652020203D20004D617220203720323024
:10E1C000313300312E362E3800342E332E350056A2
:10E1D00023202020414444522020206F7020636F70
:10E1E00064652020202020696E73747275637469E1
:10E1F0006F6E2061646472202020496E74657272B3
:10E20000757074006E6F20766563746F7200726A49
:10E210006D702020006A6D70200057686174207056
:10E220006F72743A00506F7274206E6F7420737541
:10E2300070706F72746564004D7573742062652030
:10E2400061206C6574746572002000577269747483
:10E25000696E672045450052656164696E672045B7
:10E26000450045452065727220636E743D00504F35
:10E27000525400303D5A65726F2061646472003FF1
:10E280003D43505520737461747300403D454550C3
:10E29000524F4D207465737400423D426C696E6B41
:10E2A000204C454400453D44756D70204545505215
:10E2B0004F4D00463D44756D7020464C415348001B
:10E2C000483D48656C70004C3D4C69737420492F83
:10E2D0004F20506F72747300513D51756974005234
:10E2E0003D44756D702052414D00563D73686F7707
:10E2F00020696E7465727275707420566563746FF0
:10E30000727300593D506F727420626C696E6B00BD
:10E310002A0011241FBECFEFD1E2DEBFCDBF01E046
:10E320000CBF12E0A0E0B2E0EEE1FDEF03E00BBFB6
:10E3300002C007900D92A030B107D9F712E0A0E01B
:10E34000B2E001C01D92AE30B107E1F70F9460F367
:10E350000D948DFE01E20EBF0FEF0DBF11241FBE05
:10E360000D9460F30D9400F020E030E040ED57E0B4
:10E3700005C0FA013197F1F72F5F3F4F2817390792
:10E38000C0F308959C01260F311DC901A0E0B0E043
:10E390002F5F3F4FABBFFC018791882361F08093D3
:10E3A000C6008091C00086FFFCCF8091C0008064D1
:10E3B0008093C000EACF08958DE08093C6008091DD
:10E3C000C00086FFFCCF8091C00080648093C000B5
:10E3D0008AE08093C6008091C00086FFFCCF8091C8
:10E3E000C00080648093C00008950F94C2F10F9420
:10E3F000DCF10895FC019081992359F09093C600B7
:10E400008091C00086FFFCCF8091C0008064809323
:10E41000C0003196992379F70895282F982F929567
:10E420009F70892F805D8A3308F0895F8093C600D2
:10E430008091C00086FFFCCF8091C00080648093F3
:10E44000C000822F8F70982F905D9A3308F0995FEB
:10E450009093C6008091C00086FFFCCF8091C000E1
:10E4600080648093C00008959C01FB01853691056E
:10E470001CF46330710594F0C90164E670E00F94F8
:10E480002EFE605D7F4F6093C6008091C00086FFC6
:10E49000FCCF8091C00080648093C0002B30310598
:10E4A00014F43297B4F0C90164E670E00F942EFEC4
:10E4B0006AE070E00F942EFE605D7F4F6093C600AF
:10E4C0008091C00086FFFCCF8091C0008064809363
:10E4D000C000C9016AE070E00F942EFEC0968093E0
:10E4E000C6008091C00086FFFCCF8091C000806490
:10E4F0008093C00008951F93182F8EE692EE60E07F
:10E500000F94C2F11093C6008091C00086FFFCCF2B
:10E510008091C00080648093C0000F94DCF11F9153
:10E5200008952F923F924F925F926F927F928F92B7
:10E530009F92AF92BF92CF92DF92EF92FF920F9392
:10E540001F93DF93CF93CDB7DEB762970FB6F894E2
:10E55000DEBF0FBECDBF382E622ECA01DB015C01CB
:10E560006D01772420E2222E2E010894411C511CBB
:10E570008BC081E0A81680E0B80681E0C80680E084
:10E58000D80628F0C601AA27BB270F940DF2BB2797
:10E59000AD2D9C2D8B2D0F940DF28A2D0F940DF225
:10E5A0002092C6008091C00086FFFCCF8091C00001
:10E5B00080648093C0009DE29093C6008091C0006B
:10E5C00086FFFCCF8091C00080648093C0002092C1
:10E5D000C6008091C00086FFFCCF8091C00080649F
:10E5E0008093C00019828601750188249924A1E0D6
:10E5F0003A1651F03A1620F0B2E03B1661F409C029
:10E600000BBFF701779007C0C7010F9477FE782EF4
:10E6100002C0F7017080872D0F940DF22092C60082
:10E620008091C00086FFFCCF8091C0008064809301
:10E63000C000872D8052F401EF70F0708F3520F408
:10E64000E40DF51D708204C0E40DF51D8EE280839B
:10E650000894E11CF11C011D111D0894811C911CE2
:10E6600090E18916910409F0C2CF80E190E0A0E02A
:10E67000B0E0A80EB91ECA1EDB1E198AC2010F9493
:10E68000FAF10F94DCF16A94662009F072CF629679
:10E690000FB6F894DEBF0FBECDBFCF91DF911F91B3
:10E6A0000F91FF90EF90DF90CF90BF90AF909F9031
:10E6B0008F907F906F905F904F903F902F90089534
:10E6C0002F923F924F925F926F927F928F929F9282
:10E6D000AF92BF92CF92DF92EF92FF920F931F9370
:10E6E000DF93CF93CDB7DEB7CD53D1400FB6F894BB
:10E6F000DEBF0FBECDBF01E20EBF0FEF0DBF94B75F
:10E70000F894A89514BE80916000886180936000A1
:10E7100010926000789493FF05C0E0910002F091A0
:10E7200001021995279A2F9A8091C00082608093E8
:10E73000C00080E18093C40088E18093C1000000A4
:10E74000EE24FF24870144E0A42EB12CCC24DD2448
:10E7500024C0C5010197F1F70894E11CF11C011DCB
:10E76000111D21E2E2162EE4F20620E0020720E06D
:10E77000120718F031E0C32ED12CC801B70127ECE5
:10E780003BE140E050E00F9441FE611571058105C9
:10E79000910519F485B1805885B98091C00087FD35
:10E7A00003C0C114D104A9F2A6014F5F5F4FC25E3E
:10E7B000DE4F59834883CE51D140C25EDE4F8881FF
:10E7C0009981CE51D140019711F00D9410FEC05D9A
:10E7D000DE4F19821882C053D14060E0C15DDE4F28
:10E7E0001882CF52D14088249924C35DDE4F19820C
:10E7F0001882CD52D140C05EDE4F188219821A8233
:10E800001B82C052D140CE5CDE4F188219821A8220
:10E810001B82C253D140EE24FF2487010BBFF701B6
:10E8200007911691C45CDE4F19830883CC53D14005
:10E830000D940BFEC25EDE4F28813981CE51D1404E
:10E840002130310509F52091C600C25EDE4F1982E4
:10E850001882CE51D14022C02F5F3F4F4F4F5F4FA4
:10E86000213082E138078AE7480780E0580780F0C6
:10E87000C45CDE4FE881F981CC53D140EF5FFF4F9C
:10E8800019F0EE27FF27099420E030E040E050E047
:10E890008091C00087FFE0CF2091C600C35DDE4FAE
:10E8A00048815981CD52D1404F5F5F4FC35DDE4FEC
:10E8B00059834883CD52D140213209F063C64A3092
:10E8C000510508F05FC60894811C911C53E0851621
:10E8D000910409F059C600E010E018C081E280936D
:10E8E000C6008091C00086FFFCCF8091C00080648C
:10E8F0008093C0002F5F3F4F2931310579F70F9486
:10E90000DCF10F5F1F4F0530110519F020E030E0FA
:10E91000E5CF10920A0210920B0210920C02109294
:10E920000D02109206021092070210920802109235
:10E930000902109202021092030210920402109235
:10E9400005028FEE90EE60E00F94F5F180E191EE1C
:10E9500060E00F94C2F18091C00087FFFCCF9091DE
:10E96000C600903608F09F759032B8F09093C600BC
:10E970008091C00086FFFCCF8091C00080648093AE
:10E98000C000A0E2A093C6008091C00086FFFCCF2B
:10E990008091C00080648093C000983409F4D7C18E
:10E9A0009934B8F4923409F459C1933458F490333B
:10E9B00019F1903308F4E3C59F33A1F1903409F0C5
:10E9C000DEC5BDC0953409F470C1963409F0D7C5D1
:10E9D00098C1923509F42BC2933538F49C3409F46C
:10E9E000F5C1913509F0CBC518C2963509F445C279
:10E9F000993509F0C4C567C483E792EE62E00F94CD
:10EA0000F5F110920602109207021092080210927D
:10EA1000090210920A0210920B0210920C0210923C
:10EA20000D0213C18FE792EE62E00F94F5F18FEEC5
:10EA300090EE60E00F94F5F181E291EE60E00F94CA
:10EA4000C2F187EB91EE60E00F94F5F180E391EE77
:10EA500060E00F94C2F184EE90EE60E00F94F5F167
:10EA60008FE391EE60E00F94C2F186E090E061E008
:10EA700070E00F9434F20F94DCF18DE591EE60E0DC
:10EA80000F94C2F189EC91EE60E00F94F5F18EE401
:10EA900091EE60E00F94C2F183EC91EE60E00F9490
:10EAA000F5F18CE691EE60E00F94C2F18EE10F94E7
:10EAB0000DF288E90F940DF281E00F940DF20F949E
:10EAC000DCF18BE791EE60E00F94C2F119E0E0E039
:10EAD000F0E010935700E4918E2F0F940DF20F94F5
:10EAE000DCF18AE891EE60E00F94C2F1E3E0F0E03F
:10EAF00010935700E4918E2F0F940DF20F94DCF1D8
:10EB000089E991EE60E00F94C2F1E2E0F0E0109349
:10EB10005700E4918E2F0F940DF20F94DCF188EAE8
:10EB200091EE60E00F94C2F1E1E0F0E01093570045
:10EB30001491812F0F940DF20F94DCF107CF8BE825
:10EB400092EE62E00F94F5F18BE492EE60E00F94A8
:10EB5000F5F10F94DCF100E010E019C0C8016F2D51
:10EB60000F947FFEFF2031F489E492EE60E00F9471
:10EB7000C2F10BC0F092C6008091C00086FFFCCFAE
:10EB80008091C00080648093C0000F5F1F4FC80158
:10EB900081519F41A0E0B0E0ABBFFC01F790BAE229
:10EBA000FB1621F0E2E000301E07C1F60F94DCF105
:10EBB0000F94DCF187E592EE60E00F94F5F10F948D
:10EBC000DCF1CC24DD2400E010E01EC0C8010F946D
:10EBD00077FEF82E882331F489E492EE60E00F94FA
:10EBE000C2F10BC08093C6008091C00086FFFCCFAD
:10EBF0008091C00080648093C000FE1419F00894D6
:10EC0000C11CD11C0F5F1F4FC80181519F41A0E063
:10EC1000B0E0ABBFFC01E790FAE2EF1621F022E092
:10EC20000030120799F60F94DCF10F94DCF182E6C4
:10EC300092EE60E00F94C2F1C60161E070E00F94C3
:10EC400034F20F94DCF10F94DCF110920202109276
:10EC50000302109204021092050278CE89E992EE26
:10EC600062E00F94F5F1279A2F9A16C02F9880E052
:10EC700090E0E0EDF7E03197F1F7019684369105E9
:10EC8000C1F72F9A80E090E0E0EDF7E03197F1F7DF
:10EC9000019684369105C1F78091C00087FFE6CFC9
:10ECA0008091C00087FFFCCF64C485EA92EE62E0E9
:10ECB0000F94F5F140910202509103026091040219
:10ECC0007091050281E020E10F9491F2809102029F
:10ECD00090910302A0910402B091050280509F4FD1
:10ECE000AF4FBF4F8093020290930302A0930402A0
:10ECF000B093050280509041A040B04008F426CE69
:10ED0000A4CF83EB92EE62E00F94F5F140910602FE
:10ED100050910702609108027091090280E020E1A1
:10ED20000F9491F28091060290910702A09108023F
:10ED3000B091090280509F4FAF4FBF4F80930602A2
:10ED400090930702A0930802B0930902FFCD80ECD4
:10ED500092EE62E00F94F5F183E792EE60E00F949B
:10ED6000F5F18FE792EE60E00F94F5F18BE892EE0B
:10ED700060E00F94F5F189E992EE60E00F94F5F10F
:10ED800085EA92EE60E00F94F5F183EB92EE60E09D
:10ED90000F94F5F180EC92EE60E00F94F5F187ECC2
:10EDA00092EE60E00F94F5F188ED92EE60E00F9442
:10EDB000F5F18FED92EE60E00F94F5F18AEE92EEB0
:10EDC00060E00F94F5F183E093EEBDCD87EC92EE19
:10EDD00062E00F94F5F181E40F947BF282E40F94EA
:10EDE0007BF283E40F947BF284E40F947BF285E45E
:10EDF0000F947BF286E40F947BF287E40F947BF20E
:10EE000088E40F947BF28AE40F947BF28BE40F94F6
:10EE10007BF28CE40F947BF299CD88ED92EE62E068
:10EE20000F94F5F1772473948824992409C48FED05
:10EE300092EE62E00F94F5F140910A0250910B02BC
:10EE400060910C0270910D0282E020E10F9491F22A
:10EE500080910A0290910B02A0910C02B0910D02D8
:10EE600080509F4FAF4FBF4F80930A0290930B0289
:10EE7000A0930C02B0930D0269CD8AEE92EE62E08F
:10EE80000F94F5F184EE90EE60E00F94F5F18FECC5
:10EE900091EE60E00F94F5F1662477244301CC5D98
:10EEA000DE4F19821882C452D140D401C301B695F5
:10EEB000A79597958795CA5DDE4F88839983AA8326
:10EEC000BB83C652D140CC5DDE4FA881B981C4520C
:10EED000D1401196CC5DDE4FB983A883C452D14096
:10EEE000CD0162E070E00F9434F2B0E2B093C6005E
:10EEF0008091C00086FFFCCF8091C0008064809329
:10EF0000C000EDE2E093C6008091C00086FFFCCF18
:10EF10008091C00080648093C000F0E2F093C6004E
:10EF20008091C00086FFFCCF8091C00080648093F8
:10EF3000C000CA5DDE4FE880F9800A811B81C6529D
:10EF4000D140BB27A12F902F8F2D0F940DF2CA5DBA
:10EF5000DE4F8881C652D1400F940DF2B0E2FB2EF5
:10EF6000F092C6008091C00086FFFCCF8091C00067
:10EF700080648093C0000DE30093C6008091C000C0
:10EF800086FFFCCF8091C00080648093C00010E2B7
:10EF90001093C6008091C00086FFFCCF8091C00016
:10EFA00080648093C0008BBEF3012791C65DDE4F65
:10EFB0002883CA52D140A22EBB24CC24DD2408943D
:10EFC000611C711C811C911C8BBEF3018791282E42
:10EFD0003324442455240894611C711C811C911C09
:10EFE0008BBEF3013791C55DDE4F3883CB52D140E4
:10EFF0000894611C711C811C911C8BBEF30147910C
:10F00000C45DDE4F4883CC52D140ADEFEA2EAFEF66
:10F01000FA2EAFEF0A2FAFEF1A2F6E0C7F1C801E57
:10F02000911E142D032DF22CEE24EA0CFB1C0C1D5A
:10F030001D1D0F940DF220E22093C6008091C000A8
:10F0400086FFFCCF8091C00080648093C000C65DC5
:10F05000DE4F8881CA52D1400F940DF230E23093D6
:10F06000C6008091C00086FFFCCF8091C000806404
:10F070008093C000C45DDE4F8881CC52D1400F9494
:10F080000DF240E24093C6008091C00086FFFCCFA5
:10F090008091C00080648093C000C55DDE4F888190
:10F0A000CB52D1400F940DF250E25093C6008091A4
:10F0B000C00086FFFCCF8091C00080648093C000B8
:10F0C0008FEFE8168FEFF80680E0080780E018075A
:10F0D00031F484E092EE60E00F94C2F1DFC0D80119
:10F0E000C7018070907CA070B0708050904CA040A0
:10F0F000B040D1F52FEF3FE340E050E0E222F322B1
:10F1000004231523CA5DDE4FA880B980CA80DB8046
:10F11000C652D140AE0CBF1CC01ED11EAA0CBB1CD7
:10F12000CC1CDD1C8EE092EE60E00F94C2F1BB2798
:10F13000A12F902F8F2D0F940DF28E2D0F940DF285
:10F1400030E23093C6008091C00086FFFCCF8091F2
:10F15000C00080648093C0004EE34093C60080915D
:10F16000C00086FFFCCF87C08EE09EEFA0E0B0E03D
:10F17000E822F9220A231B239CE0E91694E9F90608
:10F1800090E0090790E0190709F088C0C45DDE4FE0
:10F19000A881CC52D140EA2EFF2400E010E0102FCD
:10F1A0000F2DFE2CEE24C55DDE4FB881CB52D14031
:10F1B000EB0EF11C011D111DD601C501817090706F
:10F1C000A070B070DC0199278827E80EF91E0A1F8D
:10F1D0001B1F20EF30E040E050E0A222B322C42207
:10F1E000D52241E1AA0CBB1CCC1CDD1C4A95D1F7F1
:10F1F000EA0CFB1C0C1D1D1D81E090E0A0E0B0E0BE
:10F20000282239224A225B2235E1220C331C441C7D
:10F21000551C3A95D1F7E20CF31C041D151D57013E
:10F220006801AA0CBB1CCC1CDD1C85E192EE60E0E1
:10F230000F94C2F1C801AA27BB270F940DF2BB2778
:10F24000A12F902F8F2D0F940DF28E2D0F940DF274
:10F2500090E29093C6008091C00086FFFCCF809121
:10F26000C00080648093C000AEE3A093C60080918C
:10F27000C00086FFFCCF8091C00080648093C000F6
:10F28000C601AA27BB270F940DF2BB27AD2D9C2DDD
:10F290008B2D0F940DF28A2D0F940DF20F94DCF14B
:10F2A000CC5DDE4FE881F981C452D140F99709F471
:10F2B0004DCBF4E0EF2EF12C012D112D6E0C7F1CA7
:10F2C000801E911EF2CD83E093EE62E00F94F5F183
:10F2D0008AE192EE60E00F94C2F18091C00087FF56
:10F2E000FCCF1091C6001F751093C6008091C0001E
:10F2F00086FFFCCF8091C00080648093C0000F9493
:10F30000DCF1812F81548A3108F036C1163409F4BA
:10F3100095C0173490F4133409F44EC0143430F40B
:10F320001134F1F0123409F01DC130C0143409F465
:10F3300059C0153409F016C16BC01A3409F4C4C0A1
:10F340001B3438F4173409F48FC0183409F00AC19B
:10F35000A1C01B3409F4D2C01C3409F003C1E8C0B9
:10F360008FEF81B90DC082B1809582B980E090E0C5
:10F37000E0EDF7E03197F1F70196883C9105C1F790
:10F380008091C00087FFEFCF12B8EFC08FEF84B934
:10F390000DC085B1809585B980E090E0E0EDF7E0A3
:10F3A0003197F1F70196883C9105C1F78091C00033
:10F3B00087FFEFCF15B8D9C08FEF87B90DC088B1DF
:10F3C000809588B980E090E0E0EDF7E03197F1F7C3
:10F3D0000196883C9105C1F78091C00087FFEFCF6F
:10F3E00018B8C3C08FEF8AB90DC08BB180958BB9A7
:10F3F00080E090E0E0EDF7E03197F1F70196883C8E
:10F400009105C1F78091C00087FFEFCF1BB8ADC059
:10F410008FEF8DB90DC08EB180958EB980E090E0F0
:10F42000E0EDF7E03197F1F70196883C9105C1F7DF
:10F430008091C00087FFEFCF1EB897C08FEF80BBD1
:10F440000DC081B3809581BB80E090E0E0EDF7E0F6
:10F450003197F1F70196883C9105C1F78091C00082
:10F4600087FFEFCF11BA81C08FEF83BB0DC084B38C
:10F47000809584BB80E090E0E0EDF7E03197F1F714
:10F480000196883C9105C1F78091C00087FFEFCFBE
:10F4900014BA6BC08FEF809301010FC080910201FD
:10F4A00080958093020180E090E0E0EDF7E03197F5
:10F4B000F1F70196883C9105C1F78091C00087FF64
:10F4C000EDCF1092020151C08FEF809304010FC065
:10F4D0008091050180958093050180E090E0E0ED4A
:10F4E000F7E03197F1F70196883C9105C1F78091DB
:10F4F000C00087FFEDCF1092050137C08FEF8093DA
:10F5000007010FC08091080180958093080180E079
:10F5100090E0E0EDF7E03197F1F70196883C910536
:10F52000C1F78091C00087FFEDCF109208011DC088
:10F530008FEF80930A010FC080910B01809580931B
:10F540000B0180E090E0E0EDF7E03197F1F70196F4
:10F55000883C9105C1F78091C00087FFEDCF1092E4
:10F560000B0103C085E292EEEEC98091C00087FFD7
:10F57000FCCF8091C600EAC988E392EEE4C98CE131
:10F5800091EEE1C988249924933011F1943028F444
:10F59000913089F09230B8F408C0953061F195301F
:10F5A000F0F0963009F048C043C02B3109F042C951
:10F5B00091E06BE13FC96227C15DDE4F2883CF52E6
:10F5C000D14092E037C9B22FA0E0622793E032C960
:10F5D000822F90E0A82BB92B622794E02BC92E3004
:10F5E00009F039C3622795E0C05DDE4F19821882A9
:10F5F000C053D1401FC9E1E0F0E0EC0FFD1FC05D3A
:10F60000DE4F08811981C053D140E00FF11F2083E4
:10F610000F5F1F4FC05DDE4F19830883C053D14079
:10F6200062270A171B0709F005C9D80196E002C92D
:10F63000261709F010C303C0973009F0FBC87724E0
:10F640009981933109F412C19431C8F4963009F4C8
:10F65000D8C0973050F4923009F406C1933009F4C1
:10F660006DC0913009F059C253C0913109F477C08F
:10F67000923108F0BBC0903109F04FC2F5C098310B
:10F6800009F487C0993150F4953109F4EFC09531F0
:10F6900008F4C6C1963109F040C2C2C19A3109F4DA
:10F6A0006CC09A3108F491C09B3109F45BC09D3164
:10F6B00009F033C29D81903359F48F81882311F46E
:10F6C0009EE11CC0813011F091E018C098E916C08D
:10F6D000892F807591F0903539F4E0E0F0E089E011
:10F6E0008093570094910AC0983539F4E3E0F0E034
:10F6F00089E080935700949101C090E01A821B82A8
:10F700008D818C831D829E831F8227E030E009C299
:10F710001A8288E08B8381E48C8386E58D8382E581
:10F720008E8389E48F8383E5888780E589878FE5E9
:10F730008A8782E38B872BE030E0F3C18A818139AD
:10F7400041F0823941F0803911F48FE005C080E04A
:10F7500003C082E001C08AE01A828B8344C0772410
:10F76000739482C08D81882311F48EE12CC0813086
:10F7700011F081E028C088E926C01A82E1E0F0E0BB
:10F7800089E08093570084918B831C8224E030E0D1
:10F79000C8C18B81803589F48C81883039F4E2E0EE
:10F7A000F0E089E08093570084910DC0E0E0F0E044
:10F7B00089E080935700849106C0E3E0F0E089E09F
:10F7C0008093570084911A82DFCF8D81836C99E0FA
:10F7D000E1E0F0E0082E90935700E89507B600FCB2
:10F7E000FDCF1A821B8223E030E09BC180EC8A832C
:10F7F000CE5CDE4F188219821A821B82C253D1401E
:10F800008EC18A8190E0A0E0B0E0582F44273327D2
:10F8100022278B8190E0A0E0B0E0DC0199278827C7
:10F82000282B392B4A2B5B2B8D8190E0A0E0B0E098
:10F83000282B392B4A2B5B2B8C8190E0A0E0B0E089
:10F84000BA2FA92F982F8827282B392B4A2B5B2BCF
:10F85000220F331F441F551FC05EDE4F288339839C
:10F860004A835B83C052D1401A8259C13A81C95C34
:10F87000DE4F3883C753D140CA5CDE4F1882C6536F
:10F88000D1408B81C82EDD24CA5CDE4F488159816E
:10F89000C653D140C42AD52A933109F082C0CE5C28
:10F8A000DE4F88819981AA81BB81C253D1408050AB
:10F8B000904CA340B04030F583E0CE5CDE4FE88052
:10F8C000F9800A811B81C253D140F70100935B008C
:10F8D00080935700E89507B600FCFDCFCE5CDE4F65
:10F8E000088119812A813B81C253D14000501F4FAA
:10F8F0002F4F3F4FCE5CDE4F088319832A833B8313
:10F90000C253D140C05EDE4F488159816A817B81FC
:10F91000C052D140DE011B9631E08C9111962C91A2
:10F9200011971296C75CDE4F2883C953D140C85C3B
:10F93000DE4F1882C853D14090E0C85CDE4FE881AA
:10F94000F981C853D1408E2B9F2B0C01FA01609393
:10F950005B0030935700E89511244E5F5F4F6F4F67
:10F960007F4F0EEFE02E0FEFF02ECE0CDF1CC114F8
:10F97000D10499F685E0C05EDE4F088119812A81A5
:10F980003B81C052D140F80120935B008093570027
:10F99000E89507B600FCFDCF81E180935700E8951C
:10F9A00035C0C05EDE4F88819981AA81BB81C0527B
:10F9B000D140B695A795979587957C018601ABE0D8
:10F9C000AA2EB12CAC0EBD1E0BC0D5016D915D01F0
:10F9D000C7010F947FFE0894E11CF11C01501040F8
:10F9E0000115110591F7A60160E070E0440F551F65
:10F9F000661F771FC05EDE4FE880F9800A811B8199
:10FA0000C052D1404E0D5F1D601F711F1A82C05E33
:10FA1000DE4F488359836A837B83C052D1407FC0C5
:10FA2000FA80C55CDE4FF882CB53D140C65CDE4F16
:10FA30001882CA53D1408B81C82EDD24C65CDE4FAC
:10FA400008811981CA53D140C02AD12A1A828981DA
:10FA5000BE016D5F7F4F843121F59601C05EDE4FA0
:10FA6000E880F9800A811B81C052D1400BBFF701A9
:10FA700087919691DB018C9311969C936E5F7F4FDB
:10FA8000D801C7010296A11DB11DC05EDE4F88835B
:10FA90009983AA83BB83C052D14022503040F1F6F3
:10FAA00036C0C05EDE4F288139814A815B81C052F9
:10FAB000D1400894C108D108760100E010E0089414
:10FAC000C11CD11C0894E11CF11C011D111DE20E8A
:10FAD000F31E041F151F21BDBB27A52F942F832FB5
:10FAE00082BD2F5F3F4F4F4F5F4FF89A80B5DB01CC
:10FAF0008D93BD012E153F054007510761F7C05E8C
:10FB0000DE4F288339834A835B83C052D1409601FC
:10FB10002D5F3F4FFB01108204C080EC8A8322E0FE
:10FB200030E08BE18093C6008091C00086FFFCCF5F
:10FB30008091C00080648093C000C15DDE4FF88179
:10FB4000CF52D140F093C6008091C00086FFFCCF19
:10FB50008091C00080648093C000432F3093C60022
:10FB60008091C00086FFFCCF8091C00080648093AC
:10FB7000C000922F2093C6008091C00086FFFCCF6A
:10FB80008091C00080648093C0008EE08093C600A6
:10FB90008091C00086FFFCCF8091C000806480937C
:10FBA000C00065E1C15DDE4FE880CF52D1406E25D7
:10FBB00069276427FE01319610C090819093C6009A
:10FBC0008091C00086FFFCCF31968091C000806498
:10FBD0008093C0006927215030402115310569F715
:10FBE0006093C6008091C00086FFFCCF8091C0006A
:10FBF00080648093C00085B1805885B9772081F4F6
:10FC0000C15DDE4F0881CF52D1400F5FC15DDE4F35
:10FC10000883CF52D14090E0A0E0B0E00D941AF4F8
:10FC200027982F9880E090E020ED37E0F901319798
:10FC3000F1F7019684369105C9F700008091C00064
:10FC40008D7F8093C00081E180935700E895EE2777
:10FC5000FF270994FFCF90E00D941AF497FB092E2B
:10FC600007260AD077FD04D02ED006D000201AF443
:10FC7000709561957F4F0895F6F7909581959F4F08
:10FC80000895A1E21A2EAA1BBB1BFD010DC0AA1FDD
:10FC9000BB1FEE1FFF1FA217B307E407F50720F0F5
:10FCA000A21BB30BE40BF50B661F771F881F991F70
:10FCB0001A9469F760957095809590959B01AC01B9
:10FCC000BD01CF010895AA1BBB1B51E107C0AA1FAC
:10FCD000BB1FA617B70710F0A61BB70B881F991FED
:10FCE0005A95A9F780959095BC01CD010895F99991
:10FCF000FECF92BD81BDF89A992780B50895262F31
:10FD0000F999FECF1FBA92BD81BD20BD0FB6F89400
:0EFD1000FA9AF99A0FBE01960895F894FFCF63
:040000033000E000E9
:00000001FF
