:10000000F5C0000021C100001FC100001DC100009B
:100010001BC1000019C1000017C1000015C100007C
:1000200013C1000011C100000FC100000DC100008C
:100030000BC1000009C1000007C1000005C100009C
:1000400003C1000001C10000FFC00000FDC00000AE
:10005000FBC00000F9C00000F7C0000072C400003F
:10006000F3C0000038C400000DC40000EDC0000063
:10007000EBC00000E9C00000E7C00000E5C00000E0
:10008000E3C00000E1C00000DFC00000DDC00000F0
:10009000DBC00000D9C00000D7C00000D5C0000000
:1000A000D3C00000D1C00000CFC00000CDC0000010
:1000B000CBC00000C9C00000C7C00000C5C0000020
:1000C000C3C00000C1C00000BFC00000BDC0000030
:1000D000BBC00000B9C00000B7C00000B5C0000040
:1000E000B3C0000000000A0B02090C0D0E08070344
:1000F00004010000000000000000000000000000FB
:1001000000000000000000000000000000000000EF
:1001100012111000000000000000000000000000AC
:100120000000000000000000000000002200250088
:1001300028002B002E0031003400020100000501D0
:1001400008010B0100002100240027002A002D00D7
:100150003000330001010000040107010A01050518
:100160000505070508080808020202020A0A08082D
:10017000040404040101010101010101030303035B
:1001800003030303040707070C0C0C0C0C0C0C0CEA
:100190000202020206060606060606060B0B0B0BFB
:1001A0000B0B0B0B01021020200808102040102020
:1001B000408002010201080402010102040810202B
:1001C0004080804020100804020180040201804029
:1001D0002010080402010804020101020408102092
:1001E000408001020408102040801A0611241FBE1E
:1001F000CFEFD1E2DEBFCDBF00E00CBF12E0A0E048
:10020000B2E0E2EAFCE000E00BBF02C007900D9212
:10021000AA36B107D9F723E0AAE6B2E001C01D92E1
:10022000A031B207E1F710E0C6EFD0E000E005C072
:1002300021970109802FFE012AD5C53FD10780E013
:100240000807B1F7C8D32BC5DBCE90E0FC01EC5515
:10025000FE4F2491825A9E4FFC018491882399F08D
:1002600090E0880F991FFC01EC5BFE4FA591B491C3
:10027000FC01E65DFE4F859194918FB7F894EC9167
:10028000E22BEC938FBF0895AF92BF92CF92DF9293
:10029000EF92FF920F931F93CF93DF936C017B013B
:1002A0008B01040F151FEB015E01AE18BF08C017CC
:1002B000D10759F06991D601ED91FC910190F0813F
:1002C000E02DC6011995892B79F7C501DF91CF91F2
:1002D0001F910F91FF90EF90DF90CF90BF90AF9064
:1002E0000895FC01538D448D252F30E0842F90E03C
:1002F000821B930B541710F0CF9608950197089521
:10030000FC01918D828D981761F0A28DAE0FBF2FE9
:10031000B11D5D968C91928D9F5F9F73928F90E03F
:1003200008958FEF9FEF0895FC01918D828D9817AE
:1003300031F0828DE80FF11D858D90E008958FEFEB
:100340009FEF0895FC01918D228D892F90E0805CB4
:100350009F4F821B91098F739927089583E792E03D
:10036000F1DF21E0892B09F420E0822F0895FC01C0
:10037000A48DA80FB92FB11DA35ABF4F2C91848D06
:1003800090E001968F739927848FA689B7892C9363
:10039000A089B1898C91837080648C93938D848DB6
:1003A000981306C00288F389E02D80818F7D8083B9
:1003B0000895EF92FF920F931F93CF93DF93EC0179
:1003C00081E0888F9B8D8C8D98131AC0E889F989FC
:1003D000808185FF15C09FB7F894EE89FF896083FF
:1003E000E889F98980818370806480839FBF81E080
:1003F00090E0DF91CF911F910F91FF90EF900895C2
:10040000F62E0B8D10E00F5F1F4F0F731127E02E9C
:100410008C8D8E110BC00FB607FCFACFE889F989D5
:10042000808185FFF5CFCE01A2DFF2CFEB8DEC0FFF
:10043000FD2FF11DE35AFF4FF0829FB7F8940B8F09
:10044000EA89FB8980818062D0CFCF93DF93EC0172
:10045000888D8823B1F0AA89BB89E889F9898C91B4
:1004600085FD03C0808186FD0CC00FB607FCF7CF69
:100470008C9185FFF2CF808185FFEDCFCE0177DFB4
:10048000EACFDF91CF91089580E090E0892B21F0B1
:1004900065DF81110E94000080E090E0892B49F027
:1004A00080E090E0892B29F00E94000081110E94D9
:1004B000000080E090E0892B49F080E090E0892BFB
:1004C00029F00E94000081110E94000080E090E06D
:1004D000892B49F080E090E0892B29F00E940000F0
:1004E00081110C9400000895282F30E0F901EC519F
:1004F000FF4F9491F901EC55FE4F4491225A3E4F23
:10050000F9012491222309F434C0992309F191506F
:100510009231F0F4E92FF0E08827EF56FD4F8F4F2E
:10052000B6C3C202C602A302BA02BE02A802C90230
:10053000CF02D302D902DD02E102E702EB02A802F8
:10054000EF02F502F902809180008F77809380009E
:10055000E22FF0E0EE0FFF1FE65DFE4FA591B49194
:100560008FB7F894EC91611148C040954E234C939D
:100570008FBF0895809180008F7DE8CF80918000AB
:10058000877FE4CF84B58F7784BDE2CF84B58F7D3C
:10059000FBCF8091B0008F778093B000D9CF80914E
:1005A000B0008F7DF9CF809190008F77809390007D
:1005B000CFCF809190008F7DF9CF80919000877F81
:1005C000F5CF8091A0008F778093A000C1CF80915C
:1005D000A0008F7DF9CF8091A000877FF5CF80911B
:1005E00020018F7780932001B3CF809120018F7DF0
:1005F000F9CF80912001877FF5CF4E2BB8CF1F9385
:10060000CF93DF93182FEB0120DE209731F460E0C9
:10061000812FDF91CF911F9167CFCF3FD10511F48B
:1006200061E0F6CFE12FF0E0EC51FF4FE491E150B3
:10063000E23108F0B2C0F0E08827EF5DFC4F8F4F49
:1006400026C333033B0340034A035403CD035E0335
:1006500066036E03780382038C039B03A503CD031B
:10066000AF03B903C30384B5806884BDC7BDDF9100
:10067000CF911F91089584B5806284BDC8BDF7CF26
:1006800080918000806880938000D0938900C0931F
:100690008800EDCF80918000806280938000D093AD
:1006A0008B00C0938A00E3CF8091800088608093A4
:1006B0008000D0938D00C0938C00D9CF8091B00082
:1006C00080688093B000C093B300D1CF8091B00018
:1006D00080628093B000C093B400C9CF8091900035
:1006E000806880939000D0939900C0939800BFCF0A
:1006F00080919000806280939000D0939B00C09383
:100700009A00B5CF80919000886080939000D0933C
:100710009D00C0939C00ABCF8091A0008068809327
:10072000A0008091A0008F7B8093A000D093A900AF
:10073000C093A8009CCF8091A00080628093A0000D
:10074000D093AB00C093AA0092CF8091A0008860A4
:100750008093A000D093AD00C093AC0088CF80916F
:100760002001806880932001D0932901C093280143
:100770007ECF80912001806280932001D0932B0155
:10078000C0932A0174CF809120018860809320015A
:10079000D0932D01C0932C016ACFC038D1050CF045
:1007A0003FCF35CF3FB7F89480916F0290917002A0
:1007B000A0917102B091720226B5A89B05C02F3F8F
:1007C00019F00196A11DB11D3FBFBA2FA92F982F77
:1007D0008827BC01CD01620F711D811D911D42E072
:1007E000660F771F881F991F4A95D1F708958F923A
:1007F0009F92AF92BF92CF92DF92EF92FF924B0106
:100800005C01D0DF6B017C01CDDF6C197D098E09A5
:100810009F09683E734081059105B0F321E0821A7B
:100820009108A108B10888EEC80E83E0D81EE11C2B
:10083000F11C81149104A104B10431F7FF90EF90F1
:10084000DF90CF90BF90AF909F908F900895CF93FF
:10085000DF93FC0101900020E9F73197AF01481BBD
:10086000590BBC0183E792E00FDDEC0142E050E060
:1008700062E172E083E792E007DD8C0F9D1FDF915C
:10088000CF9108951F920F920FB60F9211240BB6BD
:100890000F922F933F934F935F936F937F938F9319
:1008A0009F93AF93BF93EF93FF9383E792E05FDD56
:1008B000FF91EF91BF91AF919F918F917F916F9138
:1008C0005F914F913F912F910F900BBE0F900FBEF4
:1008D0000F901F9018951F920F920FB60F92112430
:1008E0000BB60F922F938F939F93EF93FF93E0910B
:1008F0008302F09184028081E0918902F0918A0262
:1009000082FD1DC0908180918C028F5F8F7320913A
:100910008D02821741F0E0918C02F0E0ED58FD4F1E
:10092000958F80938C02FF91EF919F918F912F91E2
:100930000F900BBE0F900FBE0F901F9018958081E7
:10094000F2CF1F920F920FB60F9211242F933F9365
:100950008F939F93AF93BF9380916B0290916C02A2
:10096000A0916D02B0916E0230916A0223E0230FD4
:100970002D3758F50196A11DB11D20936A02809371
:100980006B0290936C02A0936D02B0936E02809103
:100990006F0290917002A0917102B0917202019663
:1009A000A11DB11D80936F0290937002A0937102FC
:1009B000B0937202BF91AF919F918F913F912F9110
:1009C0000F900FBE0F901F90189526E8230F0296E8
:1009D000A11DB11DD2CF789484B5826084BD84B549
:1009E000816084BD85B5826085BD85B5816085BD2A
:1009F00080916E00816080936E00109281008091E2
:100A00008100826080938100809181008160809369
:100A10008100809180008160809380008091B1008E
:100A200084608093B1008091B00081608093B000B9
:100A3000809191008260809391008091910081600B
:100A400080939100809190008160809390008091CC
:100A5000A10082608093A1008091A10081608093B9
:100A6000A1008091A00081608093A000809121016D
:100A70008260809321018091210181608093210116
:100A80008091200181608093200180917A008460B0
:100A900080937A0080917A00826080937A008091BE
:100AA0007A00816080937A0080917A0080688093D8
:100AB0007A001092C100E0918302F091840282E0FA
:100AC0008083E0917F02F09180021082E0918102A8
:100AD000F09182028FEC808310928B02E09187026A
:100AE000F091880286E08083E0918502F091860291
:100AF000808180618083E0918502F091860280810F
:100B000088608083E0918502F09186028081806810
:100B10008083E0918502F091860280818F7D8083C1
:100B200087E193DB86E191DB88E08FDB8BE18DDB76
:100B300088E18BDB89E189DB89E087DB8CE185DB80
:100B40008DE183DB8AE081DB8AE17FDB8FE17DDB86
:100B50008EE17BDB8BE079DB61E08CE1C5DC60E082
:100B60008DE1C2DC61E08AE1BFDCD0E0C0E0BE0123
:100B70008AE045DD69E170E080E090E038DE2196B2
:100B8000CF3FD105A1F785E192E061DE60ED77E02E
:100B900080E090E02CDE86E392E059DEBE018AE040
:100BA0002EDD69E170E080E090E021DE2197C13028
:100BB000D105A1F784E592E04ADE60E08AE194DCA9
:100BC00060ED77E080E090E012DE61E08AE18CDCAD
:100BD000D0E0C0E0BE018AE012DD69E170E080E0B3
:100BE00090E005DE2196CF3FD105A1F785E192E0A7
:100BF0002EDE60ED77E080E090E0F9DD86E392E0C4
:100C000026DEBE018AE0FBDC69E170E080E090E076
:100C1000EEDD2197C130D105A1F784E592E017DE22
:100C200060E08AE161DC60E177E280E090E0DFDDB6
:100C30002BDC92CFE3E7F2E01382128288EE93E09E
:100C4000A0E0B0E084839583A683B78384E092E03C
:100C50009183808385EC90E09587848784EC90E095
:100C60009787868780EC90E0918B808B81EC90E079
:100C7000938B828B82EC90E0958B848B86EC90E05A
:100C8000978B868B118E128E138E148E0895EE0F15
:100C9000FF1F881F8BBF0790F691E02D1994F894E1
:020CA000FFCF84
:100CA20000000000D901440171012502A201800166
:100CB20094010D0A0046554C4C20535045454420A2
:100CC20041434849455645442C20444952454354E2
:100CD200494F4E20310044454352454153494E4706
:100CE2002053504545442C20444952454354494FD2
:100CF2004E20310053544F505045442C2044495209
:0A0D020045435420494F4E203100B4
:00000001FF
