:10000000F4C0000004C1000002C1000000C10000F3
:10001000FEC00000FCC00000FAC00000F8C00000F4
:10002000F6C00000F4C00000F2C00000F0C0000004
:10003000EEC00000ECC00000EAC00000E8C0000014
:10004000E6C00000E4C00000E2C00000E0C0000024
:10005000DEC00000DCC00000DAC00000F1C2000019
:10006000D6C00000D4C00000D2C00000D0C0000044
:10007000CEC00000CCC00000CAC00000C8C0000054
:10008000C6C00000C4C00000C2C00000C0C0000064
:10009000BEC00000BCC00000BAC00000B8C0000074
:1000A000B6C00000B4C00000B2C00000B0C0000084
:1000B000AEC00000ACC00000AAC00000A8C0000094
:1000C000A6C00000A4C00000A2C00000A0C00000A4
:1000D0009EC000009CC000009AC0000098C00000B4
:1000E00096C0000000000A0B02090C0D0E08070361
:1000F00004010000000000000000000000000000FB
:1001000000000000000000000000000000000000EF
:1001100012111000000000000000000000000000AC
:100120000000000000000000000000002200250088
:1001300028002B002E0031003400020100000501D0
:1001400008010B0100002100240027002A002D00D7
:100150003000330001010000040107010A01050518
:100160000505070508080808020202020A0A08082D
:10017000040404040101010101010101030303035B
:1001800003030303040707070C0C0C0C0C0C0C0CEA
:100190000202020206060606060606060B0B0B0BFB
:1001A0000B0B0B0B01021020200808102040102020
:1001B000408002010201080402010102040810202B
:1001C0004080804020100804020180040201804029
:1001D0002010080402010804020101020408102092
:1001E0004080010204081020408011241FBECFEF80
:1001F000D1E2DEBFCDBF00E00CBF22E0A0E0B2E064
:1002000001C01D92AB30B207E1F764D214C4F8CE3E
:1002100090E0FC01EC55FE4F2491825A9E4FFC0168
:100220008491882399F090E0880F991FFC01EC5B82
:10023000FE4FA591B491FC01E65DFE4F859194912E
:100240008FB7F894EC91E22BEC938FBF0895282F91
:1002500030E0F901EC51FF4F9491F901EC55FE4F5C
:100260004491225A3E4FF9012491222309F434C0CB
:10027000992309F191509231F0F4E92FF0E08827A9
:10028000EC5BFE4F8F4FCFC37501790156016D01B5
:1002900071015B017C01820186018C019001940156
:1002A0009A019E015B01A201A801AC01809180002E
:1002B0008F7780938000E22FF0E0EE0FFF1FE65D66
:1002C000FE4FA591B4918FB7F894EC91611148C09D
:1002D00040954E234C938FBF0895809180008F7D71
:1002E000E8CF80918000877FE4CF84B58F7784BD8D
:1002F000E2CF84B58F7DFBCF8091B0008F77809364
:10030000B000D9CF8091B0008F7DF9CF809190005F
:100310008F7780939000CFCF809190008F7DF9CF21
:1003200080919000877FF5CF8091A0008F77809398
:10033000A000C1CF8091A0008F7DF9CF8091A00057
:10034000877FF5CF809120018F7780932001B3CFF5
:10035000809120018F7DF9CF80912001877FF5CF9B
:100360004E2BB8CF1F93CF93DF93182FEB0150DFA5
:10037000209731F460E0812FDF91CF911F9167CFFB
:10038000CF3FD10511F461E0F6CFE12FF0E0EC5161
:10039000FF4FE491E150E23108F0B2C0F0E088276D
:1003A000EC52FE4F8F4F3FC3E601EE01F301FD011A
:1003B000070280021102190221022B0235023F02BC
:1003C0004E025802800262026C02760284B5806896
:1003D00084BDC7BDDF91CF911F91089584B5806220
:1003E00084BDC8BDF7CF8091800080688093800075
:1003F000D0938900C0938800EDCF80918000806207
:1004000080938000D0938B00C0938A00E3CF8091CB
:100410008000886080938000D0938D00C0938C0012
:10042000D9CF8091B00080688093B000C093B300B2
:10043000D1CF8091B00080628093B000C093B400AF
:10044000C9CF80919000806880939000D0939900EC
:10045000C0939800BFCF80919000806280939000FD
:10046000D0939B00C0939A00B5CF80919000886094
:1004700080939000D0939D00C0939C00ABCF80915F
:10048000A00080688093A0008091A0008F7B809363
:10049000A000D093A900C093A8009CCF8091A00099
:1004A00080628093A000D093AB00C093AA0092CF4B
:1004B0008091A00088608093A000D093AD00C0938D
:1004C000AC0088CF80912001806880932001D09378
:1004D0002901C09328017ECF809120018062809302
:1004E0002001D0932B01C0932A0174CF8091200169
:1004F000886080932001D0932D01C0932C016ACF96
:10050000C038D1050CF03FCF35CF3FB7F89480917C
:10051000050290910602A0910702B091080226B54B
:10052000A89B05C02F3F19F00196A11DB11D3FBF2B
:10053000BA2FA92F982F8827BC01CD01620F711DFA
:10054000811D911D42E0660F771F881F991F4A95F4
:10055000D1F708958F929F92AF92BF92CF92DF9280
:10056000EF92FF924B015C01D0DF6B017C01CDDF8C
:100570006C197D098E099F09683E734081059105BC
:10058000B0F321E0821A9108A108B10888EEC80EE4
:1005900083E0D81EE11CF11C81149104A104B10474
:1005A00031F7FF90EF90DF90CF90BF90AF909F908A
:1005B0008F900895CF93DF9361E08BE148DE61E097
:1005C0008AE145DEC0910902D0910A021C161D067F
:1005D000BCF4BE0188E0C6DEBE0189E0C3DEBE0118
:1005E0008AE0C0DEBE018BE0BDDED0930A02C0937C
:1005F000090265E070E080E090E0ACDF2197E6CF93
:1006000060E087E124DE60E086E121DE60E088E1F1
:100610001EDE60E089E11BDE60E08CE118DE60E058
:100620008DE115DE60E08FE112DE60E08EE10FDE2D
:1006300060E08BE10CDE60E08AE1DF91CF9107CED4
:100640001F920F920FB60F9211242F933F938F9307
:100650009F93AF93BF938091010290910202A0916A
:100660000302B09104023091000223E0230F2D37E2
:1006700058F50196A11DB11D20930002809301023F
:1006800090930202A0930302B093040280910502AA
:1006900090910602A0910702B09108020196A11D57
:1006A000B11D8093050290930602A0930702B093B8
:1006B0000802BF91AF919F918F913F912F910F9021
:1006C0000FBE0F901F90189526E8230F0296A11DCC
:1006D000B11DD2CF789484B5826084BD84B5816029
:1006E00084BD85B5826085BD85B5816085BD8091FD
:1006F0006E00816080936E00109281008091810075
:10070000826080938100809181008160809381006C
:10071000809180008160809380008091B10084602E
:100720008093B1008091B00081608093B00080918F
:10073000910082608093910080919100816080930C
:100740009100809190008160809390008091A10041
:1007500082608093A1008091A10081608093A100BC
:100760008091A00081608093A0008091210182602F
:1007700080932101809121018160809321018091EA
:10078000200181608093200180917A0084608093B1
:100790007A0080917A00826080937A0080917A005A
:1007A000816080937A0080917A00806880937A00DB
:1007B0001092C10087E12CDD86E12ADD88E028DD8A
:1007C0008BE126DD88E124DD89E122DD89E020DD81
:1007D0008CE11EDD8DE11CDD8AE01ADD8AE118DD89
:1007E0008FE116DD8EE114DD8BE012DD00E010E01C
:1007F000E1DE61E087E12BDD60E086E128DD61E09C
:1008000088E125DD60E089E122DD61E08CE11FDD2A
:1008100060E08DE11CDD61E08FE119DD60E08EE1DB
:1008200016DD61E08BE113DD61E08AE110DDD0E0EF
:10083000C0E0BE0188E096DDBE0189E093DDBE0127
:100840008AE090DDBE018BE08DDDD0930A02C0937B
:10085000090265E070E080E090E07CDE2196C63918
:10086000D10539F760ED77E080E090E073DEA2DE3D
:1008700060ED77E080E090E06DDE9CDE60E087E197
:10088000E6DC61E086E1E3DC60E088E1E0DC61E099
:1008900089E1DDDC60E08CE1DADC61E08DE1D7DC70
:1008A00060E08FE1D4DC61E08EE1D1DC61E08BE1DE
:1008B000CEDC61E08AE1CBDCD0E0C0E0BE0188E0C4
:1008C00051DDBE0189E04EDDBE018AE04BDDBE0197
:1008D0008BE048DDD0930A02C093090265E070E026
:1008E00080E090E037DE2196C639D10539F760ED1A
:1008F00077E080E090E02EDE5DDE60ED77E080E086
:1009000090E028DE57DE60E087E1A1DC61E086E16F
:100910009EDC60E088E19BDC61E089E198DC61E0DD
:100920008CE195DC60E08DE192DC61E08FE18FDCB1
:1009300060E08EE18CDC61E08BE189DC61E08AE1E2
:1009400086DCD0E0C0E0BE0188E00CDDBE0189E0BD
:1009500009DDBE018AE006DDBE018BE003DDD09338
:100960000A02C093090265E070E080E090E0F2DDE9
:100970002196C639D10539F764EF71E080E090E047
:10098000E9DD18DE60ED77E080E090E0E3DD12DE87
:1009900061E087E15CDC60E086E159DC61E088E1F0
:1009A00056DC60E089E153DC60E08CE150DC61E022
:1009B0008DE14DDC60E08FE14ADC61E08EE147DCF7
:1009C00061E08BE144DC61E08AE141DCD0E0C0E041
:1009D000BE0188E0C7DCBE0189E0C4DCBE018AE05C
:1009E000C1DCBE018BE0BEDCD0930A02C0930902D9
:1009F00065E070E080E090E0ADDD2196C639D1057C
:100A000039F764EF71E080E090E0A4DDD3DD60EDC4
:100A100077E080E090E09EDD0115110509F4E8CE55
:100A20000E940000E5CEEE0FFF1F881F8BBF0790CE
:0A0A3000F691E02D1994F894FFCF21
:00000001FF
